{
  "contractName": "PokeBattle",
  "abi": [
    {
      "inputs": [
        {
          "internalType": "address",
          "name": "pokeCoinAddress",
          "type": "address"
        }
      ],
      "stateMutability": "nonpayable",
      "type": "constructor"
    },
    {
      "anonymous": false,
      "inputs": [
        {
          "indexed": false,
          "internalType": "uint256",
          "name": "pokemonId",
          "type": "uint256"
        },
        {
          "indexed": false,
          "internalType": "string",
          "name": "name",
          "type": "string"
        },
        {
          "indexed": false,
          "internalType": "uint256",
          "name": "dna",
          "type": "uint256"
        },
        {
          "indexed": false,
          "internalType": "string",
          "name": "pType",
          "type": "string"
        }
      ],
      "name": "NewPokemon",
      "type": "event"
    },
    {
      "anonymous": false,
      "inputs": [
        {
          "indexed": true,
          "internalType": "address",
          "name": "previousOwner",
          "type": "address"
        },
        {
          "indexed": true,
          "internalType": "address",
          "name": "newOwner",
          "type": "address"
        }
      ],
      "name": "OwnershipTransferred",
      "type": "event"
    },
    {
      "inputs": [
        {
          "internalType": "string",
          "name": "_name",
          "type": "string"
        }
      ],
      "name": "buyPokemon",
      "outputs": [],
      "stateMutability": "payable",
      "type": "function",
      "payable": true
    },
    {
      "inputs": [
        {
          "internalType": "string",
          "name": "_name",
          "type": "string"
        }
      ],
      "name": "createPokemon",
      "outputs": [],
      "stateMutability": "nonpayable",
      "type": "function"
    },
    {
      "inputs": [
        {
          "internalType": "uint256",
          "name": "dna",
          "type": "uint256"
        }
      ],
      "name": "generateRandomType",
      "outputs": [
        {
          "internalType": "string",
          "name": "",
          "type": "string"
        }
      ],
      "stateMutability": "pure",
      "type": "function",
      "constant": true
    },
    {
      "inputs": [],
      "name": "isOwner",
      "outputs": [
        {
          "internalType": "bool",
          "name": "",
          "type": "bool"
        }
      ],
      "stateMutability": "view",
      "type": "function",
      "constant": true
    },
    {
      "inputs": [],
      "name": "owner",
      "outputs": [
        {
          "internalType": "address",
          "name": "",
          "type": "address"
        }
      ],
      "stateMutability": "view",
      "type": "function",
      "constant": true
    },
    {
      "inputs": [
        {
          "internalType": "address",
          "name": "",
          "type": "address"
        }
      ],
      "name": "ownerPokemonCount",
      "outputs": [
        {
          "internalType": "uint256",
          "name": "",
          "type": "uint256"
        }
      ],
      "stateMutability": "view",
      "type": "function",
      "constant": true
    },
    {
      "inputs": [],
      "name": "pokeCoinContract",
      "outputs": [
        {
          "internalType": "contract PokeCoin",
          "name": "",
          "type": "address"
        }
      ],
      "stateMutability": "view",
      "type": "function",
      "constant": true
    },
    {
      "inputs": [],
      "name": "pokemonBuyFee",
      "outputs": [
        {
          "internalType": "uint256",
          "name": "",
          "type": "uint256"
        }
      ],
      "stateMutability": "view",
      "type": "function",
      "constant": true
    },
    {
      "inputs": [
        {
          "internalType": "uint256",
          "name": "",
          "type": "uint256"
        }
      ],
      "name": "pokemonToOwner",
      "outputs": [
        {
          "internalType": "address",
          "name": "",
          "type": "address"
        }
      ],
      "stateMutability": "view",
      "type": "function",
      "constant": true
    },
    {
      "inputs": [
        {
          "internalType": "uint256",
          "name": "",
          "type": "uint256"
        }
      ],
      "name": "pokemons",
      "outputs": [
        {
          "internalType": "string",
          "name": "name",
          "type": "string"
        },
        {
          "internalType": "uint256",
          "name": "dna",
          "type": "uint256"
        },
        {
          "internalType": "string",
          "name": "pType",
          "type": "string"
        },
        {
          "internalType": "uint8",
          "name": "level",
          "type": "uint8"
        },
        {
          "internalType": "uint32",
          "name": "readyTime",
          "type": "uint32"
        },
        {
          "internalType": "uint16",
          "name": "winCount",
          "type": "uint16"
        },
        {
          "internalType": "uint16",
          "name": "lossCount",
          "type": "uint16"
        }
      ],
      "stateMutability": "view",
      "type": "function",
      "constant": true
    },
    {
      "inputs": [],
      "name": "renounceOwnership",
      "outputs": [],
      "stateMutability": "nonpayable",
      "type": "function"
    },
    {
      "inputs": [],
      "name": "rewardAmount",
      "outputs": [
        {
          "internalType": "uint256",
          "name": "",
          "type": "uint256"
        }
      ],
      "stateMutability": "view",
      "type": "function",
      "constant": true
    },
    {
      "inputs": [
        {
          "internalType": "uint256",
          "name": "_fee",
          "type": "uint256"
        }
      ],
      "name": "setBuyFee",
      "outputs": [],
      "stateMutability": "nonpayable",
      "type": "function"
    },
    {
      "inputs": [
        {
          "internalType": "address",
          "name": "newOwner",
          "type": "address"
        }
      ],
      "name": "transferOwnership",
      "outputs": [],
      "stateMutability": "nonpayable",
      "type": "function"
    },
    {
      "inputs": [
        {
          "internalType": "uint256",
          "name": "_pokemonId1",
          "type": "uint256"
        },
        {
          "internalType": "uint256",
          "name": "_pokemonId2",
          "type": "uint256"
        }
      ],
      "name": "battle",
      "outputs": [],
      "stateMutability": "nonpayable",
      "type": "function"
    }
  ],
  "bytecode": "0x60806040526201518060015561012c600555606460075560006008553480156200002857600080fd5b50604051620025003803806200250083398181016040528101906200004e9190620001bb565b336000806101000a81548173ffffffffffffffffffffffffffffffffffffffff021916908373ffffffffffffffffffffffffffffffffffffffff16021790555060008054906101000a900473ffffffffffffffffffffffffffffffffffffffff1673ffffffffffffffffffffffffffffffffffffffff16600073ffffffffffffffffffffffffffffffffffffffff167f8be0079c531659141344cd1fd0a4f28419497f9722a3daafe3b4186f6b6457e060405160405180910390a380600660006101000a81548173ffffffffffffffffffffffffffffffffffffffff021916908373ffffffffffffffffffffffffffffffffffffffff16021790555050620001ed565b600080fd5b600073ffffffffffffffffffffffffffffffffffffffff82169050919050565b6000620001838262000156565b9050919050565b620001958162000176565b8114620001a157600080fd5b50565b600081519050620001b5816200018a565b92915050565b600060208284031215620001d457620001d362000151565b5b6000620001e484828501620001a4565b91505092915050565b61230380620001fd6000396000f3fe6080604052600436106100e85760003560e01c8063715018a61161008a578063d8c2e37b11610059578063d8c2e37b146102fc578063e47b79d414610318578063f2fde38b14610341578063f7b2a7be1461036a576100e8565b8063715018a61461024c57806385831079146102635780638da5cb5b146102a65780638f32d59b146102d1576100e8565b80632a0c5221116100c65780632a0c5221146101905780632f7467b3146101b95780634d919073146101f657806370e1cdfd14610221576100e8565b8063037036d0146100ed5780630cc835a31461012a57806325963cca14610153575b600080fd5b3480156100f957600080fd5b50610114600480360381019061010f919061179d565b610395565b604051610121919061185a565b60405180910390f35b34801561013657600080fd5b50610151600480360381019061014c919061179d565b61088d565b005b34801561015f57600080fd5b5061017a600480360381019061017591906118da565b6108a8565b6040516101879190611916565b60405180910390f35b34801561019c57600080fd5b506101b760048036038101906101b29190611931565b6108c0565b005b3480156101c557600080fd5b506101e060048036038101906101db919061179d565b610efd565b6040516101ed9190611980565b60405180910390f35b34801561020257600080fd5b5061020b610f30565b60405161021891906119fa565b60405180910390f35b34801561022d57600080fd5b50610236610f56565b6040516102439190611916565b60405180910390f35b34801561025857600080fd5b50610261610f5c565b005b34801561026f57600080fd5b5061028a6004803603810190610285919061179d565b61102b565b60405161029d9796959493929190611a6d565b60405180910390f35b3480156102b257600080fd5b506102bb6111c6565b6040516102c89190611980565b60405180910390f35b3480156102dd57600080fd5b506102e66111ef565b6040516102f39190611b05565b60405180910390f35b61031660048036038101906103119190611c55565b611246565b005b34801561032457600080fd5b5061033f600480360381019061033a9190611c55565b6112ae565b005b34801561034d57600080fd5b50610368600480360381019061036391906118da565b611360565b005b34801561037657600080fd5b5061037f61137d565b60405161038c9190611916565b60405180910390f35b606060006012836103a69190611ccd565b9050600081036103ee576040518060400160405280600681526020017f6e6f726d616c0000000000000000000000000000000000000000000000000000815250915050610888565b60018103610434576040518060400160405280600481526020017f6669726500000000000000000000000000000000000000000000000000000000815250915050610888565b6002810361047a576040518060400160405280600581526020017f7761746572000000000000000000000000000000000000000000000000000000815250915050610888565b600381036104c0576040518060400160405280600881526020017f656c656374726963000000000000000000000000000000000000000000000000815250915050610888565b60048103610506576040518060400160405280600581526020017f6772617373000000000000000000000000000000000000000000000000000000815250915050610888565b6005810361054c576040518060400160405280600381526020017f6963650000000000000000000000000000000000000000000000000000000000815250915050610888565b60068103610592576040518060400160405280600881526020017f6669676874696e67000000000000000000000000000000000000000000000000815250915050610888565b600781036105d8576040518060400160405280600681526020017f706f69736f6e0000000000000000000000000000000000000000000000000000815250915050610888565b6008810361061e576040518060400160405280600681526020017f67726f756e640000000000000000000000000000000000000000000000000000815250915050610888565b60098103610664576040518060400160405280600681526020017f666c79696e670000000000000000000000000000000000000000000000000000815250915050610888565b600a81036106aa576040518060400160405280600781526020017f7073796368696300000000000000000000000000000000000000000000000000815250915050610888565b600b81036106f0576040518060400160405280600381526020017f6275670000000000000000000000000000000000000000000000000000000000815250915050610888565b600c8103610736576040518060400160405280600481526020017f726f636b00000000000000000000000000000000000000000000000000000000815250915050610888565b600d810361077c576040518060400160405280600581526020017f67686f7374000000000000000000000000000000000000000000000000000000815250915050610888565b600e81036107c2576040518060400160405280600681526020017f647261676f6e0000000000000000000000000000000000000000000000000000815250915050610888565b600f8103610808576040518060400160405280600481526020017f6461726b00000000000000000000000000000000000000000000000000000000815250915050610888565b6010810361084e576040518060400160405280600581526020017f737465656c000000000000000000000000000000000000000000000000000000815250915050610888565b6040518060400160405280600581526020017f66616972790000000000000000000000000000000000000000000000000000008152509150505b919050565b6108956111ef565b61089e57600080fd5b8060058190555050565b60046020528060005260406000206000915090505481565b816003600082815260200190815260200160002060009054906101000a900473ffffffffffffffffffffffffffffffffffffffff1673ffffffffffffffffffffffffffffffffffffffff163373ffffffffffffffffffffffffffffffffffffffff161461092c57600080fd5b6000806002858154811061094357610942611cfe565b5b90600052602060002090600402016040518060e001604052908160008201805461096c90611d5c565b80601f016020809104026020016040519081016040528092919081815260200182805461099890611d5c565b80156109e55780601f106109ba576101008083540402835291602001916109e5565b820191906000526020600020905b8154815290600101906020018083116109c857829003601f168201915b5050505050815260200160018201548152602001600282018054610a0890611d5c565b80601f0160208091040260200160405190810160405280929190818152602001828054610a3490611d5c565b8015610a815780601f10610a5657610100808354040283529160200191610a81565b820191906000526020600020905b815481529060010190602001808311610a6457829003601f168201915b505050505081526020016003820160009054906101000a900460ff1660ff1660ff1681526020016003820160019054906101000a900463ffffffff1663ffffffff1663ffffffff1681526020016003820160059054906101000a900461ffff1661ffff1661ffff1681526020016003820160079054906101000a900461ffff1661ffff1661ffff16815250509050600060028581548110610b2557610b24611cfe565b5b90600052602060002090600402016040518060e0016040529081600082018054610b4e90611d5c565b80601f0160208091040260200160405190810160405280929190818152602001828054610b7a90611d5c565b8015610bc75780601f10610b9c57610100808354040283529160200191610bc7565b820191906000526020600020905b815481529060010190602001808311610baa57829003601f168201915b5050505050815260200160018201548152602001600282018054610bea90611d5c565b80601f0160208091040260200160405190810160405280929190818152602001828054610c1690611d5c565b8015610c635780601f10610c3857610100808354040283529160200191610c63565b820191906000526020600020905b815481529060010190602001808311610c4657829003601f168201915b505050505081526020016003820160009054906101000a900460ff1660ff1660ff1681526020016003820160019054906101000a900463ffffffff1663ffffffff1663ffffffff1681526020016003820160059054906101000a900461ffff1661ffff1661ffff1681526020016003820160079054906101000a900461ffff1661ffff1661ffff168152505090506000603293506000610d036064611383565b9050808510610db0578360a0018051809190610d1e90611dbc565b61ffff1661ffff16815250506064846060015160ff161015610d5757836060018051809190610d4c90611de6565b60ff1660ff16815250505b8260c0018051809190610d6990611dbc565b61ffff1661ffff16815250506003600089815260200190815260200160002060009054906101000a900473ffffffffffffffffffffffffffffffffffffffff169150610e50565b8260a0018051809190610dc290611dbc565b61ffff1661ffff16815250506064836060015160ff161015610dfb57826060018051809190610df090611de6565b60ff1660ff16815250505b8360c0018051809190610e0d90611dbc565b61ffff1661ffff16815250506003600088815260200190815260200160002060009054906101000a900473ffffffffffffffffffffffffffffffffffffffff1691505b600660009054906101000a900473ffffffffffffffffffffffffffffffffffffffff1673ffffffffffffffffffffffffffffffffffffffff1663a9059cbb836007546040518363ffffffff1660e01b8152600401610eaf929190611e0f565b6020604051808303816000875af1158015610ece573d6000803e3d6000fd5b505050506040513d601f19601f82011682018060405250810190610ef29190611e64565b505050505050505050565b60036020528060005260406000206000915054906101000a900473ffffffffffffffffffffffffffffffffffffffff1681565b600660009054906101000a900473ffffffffffffffffffffffffffffffffffffffff1681565b60055481565b610f646111ef565b610f6d57600080fd5b600073ffffffffffffffffffffffffffffffffffffffff1660008054906101000a900473ffffffffffffffffffffffffffffffffffffffff1673ffffffffffffffffffffffffffffffffffffffff167f8be0079c531659141344cd1fd0a4f28419497f9722a3daafe3b4186f6b6457e060405160405180910390a360008060006101000a81548173ffffffffffffffffffffffffffffffffffffffff021916908373ffffffffffffffffffffffffffffffffffffffff160217905550565b6002818154811061103b57600080fd5b906000526020600020906004020160009150905080600001805461105e90611d5c565b80601f016020809104026020016040519081016040528092919081815260200182805461108a90611d5c565b80156110d75780601f106110ac576101008083540402835291602001916110d7565b820191906000526020600020905b8154815290600101906020018083116110ba57829003601f168201915b5050505050908060010154908060020180546110f290611d5c565b80601f016020809104026020016040519081016040528092919081815260200182805461111e90611d5c565b801561116b5780601f106111405761010080835404028352916020019161116b565b820191906000526020600020905b81548152906001019060200180831161114e57829003601f168201915b5050505050908060030160009054906101000a900460ff16908060030160019054906101000a900463ffffffff16908060030160059054906101000a900461ffff16908060030160079054906101000a900461ffff16905087565b60008060009054906101000a900473ffffffffffffffffffffffffffffffffffffffff16905090565b60008060009054906101000a900473ffffffffffffffffffffffffffffffffffffffff1673ffffffffffffffffffffffffffffffffffffffff163373ffffffffffffffffffffffffffffffffffffffff1614905090565b600554341461125457600080fd5b61125c6111c6565b73ffffffffffffffffffffffffffffffffffffffff166108fc349081150290604051600060405180830381858888f193505050501580156112a1573d6000803e3d6000fd5b506112ab816112ae565b50565b6040518060400160405280600f81526020017f5374617274657220506f6b656d6f6e000000000000000000000000000000000081525080519060200120818051906020012003611345576000600460003373ffffffffffffffffffffffffffffffffffffffff1673ffffffffffffffffffffffffffffffffffffffff168152602001908152602001600020541461134457600080fd5b5b6000611350826113df565b905061135c8282611417565b5050565b6113686111ef565b61137157600080fd5b61137a8161165d565b50565b60075481565b60006008600081548092919061139890611e91565b91905055508142336008546040516020016113b593929190611f42565b6040516020818303038152906040528051906020012060001c6113d89190611ccd565b9050919050565b600080826040516020016113f39190611fbb565b6040516020818303038152906040528051906020012060001c905080915050919050565b600061142282610395565b905060026040518060e00160405280858152602001848152602001838152602001600160ff1681526020016001544261145b9190611fd2565b63ffffffff168152602001600061ffff168152602001600061ffff16815250908060018154018082558091505060019003906000526020600020906004020160009091909190915060008201518160000190816114b891906121a8565b506020820151816001015560408201518160020190816114d891906121a8565b5060608201518160030160006101000a81548160ff021916908360ff16021790555060808201518160030160016101000a81548163ffffffff021916908363ffffffff16021790555060a08201518160030160056101000a81548161ffff021916908361ffff16021790555060c08201518160030160076101000a81548161ffff021916908361ffff160217905550505060006002805490509050336003600083815260200190815260200160002060006101000a81548173ffffffffffffffffffffffffffffffffffffffff021916908373ffffffffffffffffffffffffffffffffffffffff160217905550600460003373ffffffffffffffffffffffffffffffffffffffff1673ffffffffffffffffffffffffffffffffffffffff168152602001908152602001600020600081548092919061161590611e91565b91905055507f28edc1b769f6dd69d6f4439dbc820c85cc48492a1855ece80e8759184207b71d8185858560405161164f949392919061227a565b60405180910390a150505050565b600073ffffffffffffffffffffffffffffffffffffffff168173ffffffffffffffffffffffffffffffffffffffff160361169657600080fd5b8073ffffffffffffffffffffffffffffffffffffffff1660008054906101000a900473ffffffffffffffffffffffffffffffffffffffff1673ffffffffffffffffffffffffffffffffffffffff167f8be0079c531659141344cd1fd0a4f28419497f9722a3daafe3b4186f6b6457e060405160405180910390a3806000806101000a81548173ffffffffffffffffffffffffffffffffffffffff021916908373ffffffffffffffffffffffffffffffffffffffff16021790555050565b6000604051905090565b600080fd5b600080fd5b6000819050919050565b61177a81611767565b811461178557600080fd5b50565b60008135905061179781611771565b92915050565b6000602082840312156117b3576117b261175d565b5b60006117c184828501611788565b91505092915050565b600081519050919050565b600082825260208201905092915050565b60005b838110156118045780820151818401526020810190506117e9565b60008484015250505050565b6000601f19601f8301169050919050565b600061182c826117ca565b61183681856117d5565b93506118468185602086016117e6565b61184f81611810565b840191505092915050565b600060208201905081810360008301526118748184611821565b905092915050565b600073ffffffffffffffffffffffffffffffffffffffff82169050919050565b60006118a78261187c565b9050919050565b6118b78161189c565b81146118c257600080fd5b50565b6000813590506118d4816118ae565b92915050565b6000602082840312156118f0576118ef61175d565b5b60006118fe848285016118c5565b91505092915050565b61191081611767565b82525050565b600060208201905061192b6000830184611907565b92915050565b600080604083850312156119485761194761175d565b5b600061195685828601611788565b925050602061196785828601611788565b9150509250929050565b61197a8161189c565b82525050565b60006020820190506119956000830184611971565b92915050565b6000819050919050565b60006119c06119bb6119b68461187c565b61199b565b61187c565b9050919050565b60006119d2826119a5565b9050919050565b60006119e4826119c7565b9050919050565b6119f4816119d9565b82525050565b6000602082019050611a0f60008301846119eb565b92915050565b600060ff82169050919050565b611a2b81611a15565b82525050565b600063ffffffff82169050919050565b611a4a81611a31565b82525050565b600061ffff82169050919050565b611a6781611a50565b82525050565b600060e0820190508181036000830152611a87818a611821565b9050611a966020830189611907565b8181036040830152611aa88188611821565b9050611ab76060830187611a22565b611ac46080830186611a41565b611ad160a0830185611a5e565b611ade60c0830184611a5e565b98975050505050505050565b60008115159050919050565b611aff81611aea565b82525050565b6000602082019050611b1a6000830184611af6565b92915050565b600080fd5b600080fd5b7f4e487b7100000000000000000000000000000000000000000000000000000000600052604160045260246000fd5b611b6282611810565b810181811067ffffffffffffffff82111715611b8157611b80611b2a565b5b80604052505050565b6000611b94611753565b9050611ba08282611b59565b919050565b600067ffffffffffffffff821115611bc057611bbf611b2a565b5b611bc982611810565b9050602081019050919050565b82818337600083830152505050565b6000611bf8611bf384611ba5565b611b8a565b905082815260208101848484011115611c1457611c13611b25565b5b611c1f848285611bd6565b509392505050565b600082601f830112611c3c57611c3b611b20565b5b8135611c4c848260208601611be5565b91505092915050565b600060208284031215611c6b57611c6a61175d565b5b600082013567ffffffffffffffff811115611c8957611c88611762565b5b611c9584828501611c27565b91505092915050565b7f4e487b7100000000000000000000000000000000000000000000000000000000600052601260045260246000fd5b6000611cd882611767565b9150611ce383611767565b925082611cf357611cf2611c9e565b5b828206905092915050565b7f4e487b7100000000000000000000000000000000000000000000000000000000600052603260045260246000fd5b7f4e487b7100000000000000000000000000000000000000000000000000000000600052602260045260246000fd5b60006002820490506001821680611d7457607f821691505b602082108103611d8757611d86611d2d565b5b50919050565b7f4e487b7100000000000000000000000000000000000000000000000000000000600052601160045260246000fd5b6000611dc782611a50565b915061ffff8203611ddb57611dda611d8d565b5b600182019050919050565b6000611df182611a15565b915060ff8203611e0457611e03611d8d565b5b600182019050919050565b6000604082019050611e246000830185611971565b611e316020830184611907565b9392505050565b611e4181611aea565b8114611e4c57600080fd5b50565b600081519050611e5e81611e38565b92915050565b600060208284031215611e7a57611e7961175d565b5b6000611e8884828501611e4f565b91505092915050565b6000611e9c82611767565b91507fffffffffffffffffffffffffffffffffffffffffffffffffffffffffffffffff8203611ece57611ecd611d8d565b5b600182019050919050565b6000819050919050565b611ef4611eef82611767565b611ed9565b82525050565b60008160601b9050919050565b6000611f1282611efa565b9050919050565b6000611f2482611f07565b9050919050565b611f3c611f378261189c565b611f19565b82525050565b6000611f4e8286611ee3565b602082019150611f5e8285611f2b565b601482019150611f6e8284611ee3565b602082019150819050949350505050565b600081905092915050565b6000611f95826117ca565b611f9f8185611f7f565b9350611faf8185602086016117e6565b80840191505092915050565b6000611fc78284611f8a565b915081905092915050565b6000611fdd82611767565b9150611fe883611767565b925082820190508082111561200057611fff611d8d565b5b92915050565b60008190508160005260206000209050919050565b60006020601f8301049050919050565b600082821b905092915050565b6000600883026120687fffffffffffffffffffffffffffffffffffffffffffffffffffffffffffffffff8261202b565b612072868361202b565b95508019841693508086168417925050509392505050565b60006120a56120a061209b84611767565b61199b565b611767565b9050919050565b6000819050919050565b6120bf8361208a565b6120d36120cb826120ac565b848454612038565b825550505050565b600090565b6120e86120db565b6120f38184846120b6565b505050565b5b818110156121175761210c6000826120e0565b6001810190506120f9565b5050565b601f82111561215c5761212d81612006565b6121368461201b565b81016020851015612145578190505b6121596121518561201b565b8301826120f8565b50505b505050565b600082821c905092915050565b600061217f60001984600802612161565b1980831691505092915050565b6000612198838361216e565b9150826002028217905092915050565b6121b1826117ca565b67ffffffffffffffff8111156121ca576121c9611b2a565b5b6121d48254611d5c565b6121df82828561211b565b600060209050601f8311600181146122125760008415612200578287015190505b61220a858261218c565b865550612272565b601f19841661222086612006565b60005b8281101561224857848901518255600182019150602085019450602081019050612223565b868310156122655784890151612261601f89168261216e565b8355505b6001600288020188555050505b505050505050565b600060808201905061228f6000830187611907565b81810360208301526122a18186611821565b90506122b06040830185611907565b81810360608301526122c28184611821565b90509594505050505056fea2646970667358221220758c1442af12459c6635e03c4088f8f57ed3b79cc45b0b57d0a47b096dea708464736f6c63430008110033",
  "immutableReferences": {},
  "source": "// SPDX-License-Identifier: MIT\r\npragma solidity ^0.8.0;\r\n\r\n//safeMath isn't necassary anymore when using solidity 0.8+\r\n//https://ethereum.stackexchange.com/questions/140714/how-to-do-safemath-with-solidity-0-8-0\r\n//https://metaschool.so/articles/use-safemath-sol-into-contract/\r\n//import \"./safeMath.sol\";\r\nimport \"./pokeHelper.sol\";\r\nimport \"./pokeCoin.sol\";\r\n\r\n\r\ncontract PokeBattle is pokeHelper {\r\n    PokeCoin public pokeCoinContract; \r\n\r\n    constructor(address pokeCoinAddress) {\r\n        pokeCoinContract = PokeCoin(pokeCoinAddress);\r\n    }\r\n\r\n    uint256 public rewardAmount = 100;\r\n    uint randNonce = 0;\r\n\r\n    function randMod(uint _modulus) internal returns(uint) {\r\n        randNonce++;\r\n        return uint(keccak256(abi.encodePacked(block.timestamp, msg.sender, randNonce))) % _modulus;\r\n    }\r\n\r\n    function battle(uint256 _pokemonId1, uint256 _pokemonId2) public ownerOf(_pokemonId1){\r\n        uint attackVictoryProbability;\r\n\r\n        Pokemon memory pokemon1 = pokemons[_pokemonId1];\r\n        Pokemon memory pokemon2 = pokemons[_pokemonId2];\r\n\r\n        //battle function\r\n        address winner;\r\n        attackVictoryProbability = 50;\r\n        uint rand = randMod(100);\r\n        if(attackVictoryProbability >= rand) {\r\n            pokemon1.winCount++;\r\n            if(pokemon1.level < 100){\r\n                pokemon1.level++;\r\n            }\r\n            pokemon2.lossCount++;\r\n            winner = pokemonToOwner[_pokemonId1];\r\n        }else{\r\n            pokemon2.winCount++;\r\n            if(pokemon2.level < 100){\r\n                pokemon2.level++;\r\n            }\r\n            pokemon1.lossCount++;\r\n            winner = pokemonToOwner[_pokemonId2];\r\n        }\r\n        pokeCoinContract.transfer(winner, rewardAmount);\r\n    }\r\n\r\nfunction typeAdvantage(string memory pTypeAttacker, string memory pTypeDefender) internal pure returns (uint){\r\n        // Fire type\r\n        if (keccak256(bytes(pTypeAttacker)) == keccak256(bytes(\"fire\"))) {\r\n            if (keccak256(bytes(pTypeDefender)) == keccak256(bytes(\"water\")) ||\r\n                keccak256(bytes(pTypeDefender)) == keccak256(bytes(\"rock\")) ||\r\n                keccak256(bytes(pTypeDefender)) == keccak256(bytes(\"fire\"))) {\r\n                return 30; // Disadvantage\r\n            } else if (keccak256(bytes(pTypeDefender)) == keccak256(bytes(\"grass\")) ||\r\n                keccak256(bytes(pTypeDefender)) == keccak256(bytes(\"ice\")) ||\r\n                keccak256(bytes(pTypeDefender)) == keccak256(bytes(\"bug\")) ||\r\n                keccak256(bytes(pTypeDefender)) == keccak256(bytes(\"steel\"))) {\r\n                return 80; // Advantage\r\n            }\r\n        } \r\n        // Water type\r\n        else if (keccak256(bytes(pTypeAttacker)) == keccak256(bytes(\"water\"))) {\r\n            if (keccak256(bytes(pTypeDefender)) == keccak256(bytes(\"fire\")) ||\r\n                keccak256(bytes(pTypeDefender)) == keccak256(bytes(\"water\"))) {\r\n                return 30; // Disadvantage\r\n            } else if (keccak256(bytes(pTypeDefender)) == keccak256(bytes(\"grass\")) ||\r\n                keccak256(bytes(pTypeDefender)) == keccak256(bytes(\"ground\")) ||\r\n                keccak256(bytes(pTypeDefender)) == keccak256(bytes(\"rock\"))) {\r\n                return 80; // Advantage\r\n            }\r\n        }\r\n        // Grass type\r\n        else if (keccak256(bytes(pTypeAttacker)) == keccak256(bytes(\"grass\"))) {\r\n            if (keccak256(bytes(pTypeDefender)) == keccak256(bytes(\"fire\")) ||\r\n                keccak256(bytes(pTypeDefender)) == keccak256(bytes(\"flying\")) ||\r\n                keccak256(bytes(pTypeDefender)) == keccak256(bytes(\"bug\")) ||\r\n                keccak256(bytes(pTypeDefender)) == keccak256(bytes(\"poison\")) ||\r\n                keccak256(bytes(pTypeDefender)) == keccak256(bytes(\"ice\")) ||\r\n                keccak256(bytes(pTypeDefender)) == keccak256(bytes(\"steel\")) ||\r\n                keccak256(bytes(pTypeDefender)) == keccak256(bytes(\"dragon\"))) {\r\n                return 30; // Disadvantage\r\n            } else if (keccak256(bytes(pTypeDefender)) == keccak256(bytes(\"water\")) ||\r\n                keccak256(bytes(pTypeDefender)) == keccak256(bytes(\"ground\")) ||\r\n                keccak256(bytes(pTypeDefender)) == keccak256(bytes(\"rock\"))) {\r\n                return 80; // Advantage\r\n            }\r\n        }\r\n        // Electric type\r\n        else if (keccak256(bytes(pTypeAttacker)) == keccak256(bytes(\"electric\"))) {\r\n            if (keccak256(bytes(pTypeDefender)) == keccak256(bytes(\"ground\"))) {\r\n                return 30; // Disadvantage\r\n            } else if (keccak256(bytes(pTypeDefender)) == keccak256(bytes(\"water\")) ||\r\n                keccak256(bytes(pTypeDefender)) == keccak256(bytes(\"flying\"))) {\r\n                return 80; // Advantage\r\n            }\r\n        }\r\n        // Ice type\r\n        else if (keccak256(bytes(pTypeAttacker)) == keccak256(bytes(\"ice\"))) {\r\n            if (keccak256(bytes(pTypeDefender)) == keccak256(bytes(\"fire\")) ||\r\n                keccak256(bytes(pTypeDefender)) == keccak256(bytes(\"fighting\")) ||\r\n                keccak256(bytes(pTypeDefender)) == keccak256(bytes(\"rock\")) ||\r\n                keccak256(bytes(pTypeDefender)) == keccak256(bytes(\"steel\"))) {\r\n                return 30; // Disadvantage\r\n            } else if (keccak256(bytes(pTypeDefender)) == keccak256(bytes(\"grass\")) ||\r\n                keccak256(bytes(pTypeDefender)) == keccak256(bytes(\"ground\")) ||\r\n                keccak256(bytes(pTypeDefender)) == keccak256(bytes(\"flying\")) ||\r\n                keccak256(bytes(pTypeDefender)) == keccak256(bytes(\"dragon\"))) {\r\n                return 80; // Advantage\r\n            }\r\n        }\r\n        // Fighting type\r\n        else if (keccak256(bytes(pTypeAttacker)) == keccak256(bytes(\"fighting\"))) {\r\n            if (keccak256(bytes(pTypeDefender)) == keccak256(bytes(\"flying\")) ||\r\n                keccak256(bytes(pTypeDefender)) == keccak256(bytes(\"psychic\")) ||\r\n                keccak256(bytes(pTypeDefender)) == keccak256(bytes(\"fairy\"))) {\r\n                return 30; // Disadvantage\r\n            } else if (keccak256(bytes(pTypeDefender)) == keccak256(bytes(\"normal\")) ||\r\n                keccak256(bytes(pTypeDefender)) == keccak256(bytes(\"ice\")) ||\r\n                keccak256(bytes(pTypeDefender)) == keccak256(bytes(\"rock\")) ||\r\n                keccak256(bytes(pTypeDefender)) == keccak256(bytes(\"dark\"))) {\r\n                return 80; // Advantage\r\n            }\r\n        }\r\n        // Poison type\r\n        else if (keccak256(bytes(pTypeAttacker)) == keccak256(bytes(\"poison\"))) {\r\n            if (keccak256(bytes(pTypeDefender)) == keccak256(bytes(\"steel\"))) {\r\n                return 30; // Disadvantage\r\n            } else if (keccak256(bytes(pTypeDefender)) == keccak256(bytes(\"grass\")) ||\r\n                keccak256(bytes(pTypeDefender)) == keccak256(bytes(\"fairy\"))) {\r\n                return 80; // Advantage\r\n            }\r\n        }\r\n        //ground type\r\n        else if (keccak256(bytes(pTypeAttacker)) == keccak256(bytes(\"ground\"))) {\r\n            if (keccak256(bytes(pTypeDefender)) == keccak256(bytes(\"water\")) ||\r\n                keccak256(bytes(pTypeDefender)) == keccak256(bytes(\"grass\")) ||\r\n                keccak256(bytes(pTypeDefender)) == keccak256(bytes(\"ice\"))) {\r\n                return 30; // Disadvantage\r\n            } else if (keccak256(bytes(pTypeDefender)) == keccak256(bytes(\"fire\")) ||\r\n                keccak256(bytes(pTypeDefender)) == keccak256(bytes(\"electric\")) ||\r\n                keccak256(bytes(pTypeDefender)) == keccak256(bytes(\"poison\")) ||\r\n                keccak256(bytes(pTypeDefender)) == keccak256(bytes(\"rock\")) ||\r\n                keccak256(bytes(pTypeDefender)) == keccak256(bytes(\"steel\"))) {\r\n                return 80; // Advantage\r\n            }\r\n        }\r\n        // Flying type\r\n        else if (keccak256(bytes(pTypeAttacker)) == keccak256(bytes(\"flying\"))) {\r\n            if (keccak256(bytes(pTypeDefender)) == keccak256(bytes(\"electric\")) ||\r\n                keccak256(bytes(pTypeDefender)) == keccak256(bytes(\"rock\")) ||\r\n                keccak256(bytes(pTypeDefender)) == keccak256(bytes(\"steel\"))) {\r\n                return 30; // Disadvantage\r\n            } else if (keccak256(bytes(pTypeDefender)) == keccak256(bytes(\"grass\")) ||\r\n                keccak256(bytes(pTypeDefender)) == keccak256(bytes(\"fighting\")) ||\r\n                keccak256(bytes(pTypeDefender)) == keccak256(bytes(\"bug\"))) {\r\n                return 80; // Advantage\r\n            }\r\n        }\r\n        // Psychic type\r\n        else if (keccak256(bytes(pTypeAttacker)) == keccak256(bytes(\"psychic\"))) {\r\n            if (keccak256(bytes(pTypeDefender)) == keccak256(bytes(\"bug\")) ||\r\n                keccak256(bytes(pTypeDefender)) == keccak256(bytes(\"ghost\")) ||\r\n                keccak256(bytes(pTypeDefender)) == keccak256(bytes(\"dark\"))) {\r\n                return 30; // Disadvantage\r\n            } else if (keccak256(bytes(pTypeDefender)) == keccak256(bytes(\"fighting\")) ||\r\n                keccak256(bytes(pTypeDefender)) == keccak256(bytes(\"poison\"))) {\r\n                return 80; // Advantage\r\n            }\r\n        }\r\n        // Bug type\r\n        else if (keccak256(bytes(pTypeAttacker)) == keccak256(bytes(\"bug\"))) {\r\n            if (keccak256(bytes(pTypeDefender)) == keccak256(bytes(\"fire\")) ||\r\n                keccak256(bytes(pTypeDefender)) == keccak256(bytes(\"flying\")) ||\r\n                keccak256(bytes(pTypeDefender)) == keccak256(bytes(\"rock\"))) {\r\n                return 30; // Disadvantage\r\n            } else if (keccak256(bytes(pTypeDefender)) == keccak256(bytes(\"grass\")) ||\r\n                keccak256(bytes(pTypeDefender)) == keccak256(bytes(\"psychic\")) ||\r\n                keccak256(bytes(pTypeDefender)) == keccak256(bytes(\"dark\"))) {\r\n                return 80; // Advantage\r\n            }\r\n        }\r\n        // Rock type\r\n        else if (keccak256(bytes(pTypeAttacker)) == keccak256(bytes(\"rock\"))) {\r\n            if (keccak256(bytes(pTypeDefender)) == keccak256(bytes(\"fighting\")) ||\r\n                keccak256(bytes(pTypeDefender)) == keccak256(bytes(\"ground\")) ||\r\n                keccak256(bytes(pTypeDefender)) == keccak256(bytes(\"steel\"))) {\r\n                return 30; // Disadvantage\r\n            } else if (keccak256(bytes(pTypeDefender)) == keccak256(bytes(\"fire\")) ||\r\n                keccak256(bytes(pTypeDefender)) == keccak256(bytes(\"ice\")) ||\r\n                keccak256(bytes(pTypeDefender)) == keccak256(bytes(\"flying\")) ||\r\n                keccak256(bytes(pTypeDefender)) == keccak256(bytes(\"bug\"))) {\r\n                return 80; // Advantage\r\n            }\r\n        }\r\n        // Ghost type\r\n        else if (keccak256(bytes(pTypeAttacker)) == keccak256(bytes(\"ghost\"))) {\r\n            if (keccak256(bytes(pTypeDefender)) == keccak256(bytes(\"normal\")) ||\r\n                keccak256(bytes(pTypeDefender)) == keccak256(bytes(\"psychic\"))) {\r\n                return 30; // Disadvantage\r\n            } else if (keccak256(bytes(pTypeDefender)) == keccak256(bytes(\"ghost\")) ||\r\n                keccak256(bytes(pTypeDefender)) == keccak256(bytes(\"dark\"))) {\r\n                return 80; // Advantage\r\n            }\r\n        }\r\n        // Dragon type\r\n        else if (keccak256(bytes(pTypeAttacker)) == keccak256(bytes(\"dragon\"))) {\r\n            if (keccak256(bytes(pTypeDefender)) == keccak256(bytes(\"steel\"))) {\r\n                return 30; // Disadvantage\r\n            } else if (keccak256(bytes(pTypeDefender)) == keccak256(bytes(\"dragon\"))) {\r\n                return 80; // Advantage\r\n            }\r\n        }\r\n        // Dark type\r\n        else if (keccak256(bytes(pTypeAttacker)) == keccak256(bytes(\"dark\"))) {\r\n            if (keccak256(bytes(pTypeDefender)) == keccak256(bytes(\"fighting\")) ||\r\n                keccak256(bytes(pTypeDefender)) == keccak256(bytes(\"bug\")) ||\r\n                keccak256(bytes(pTypeDefender)) == keccak256(bytes(\"fairy\"))) {\r\n                return 30; // Disadvantage\r\n            } else if (keccak256(bytes(pTypeDefender)) == keccak256(bytes(\"ghost\")) ||\r\n                keccak256(bytes(pTypeDefender)) == keccak256(bytes(\"psychic\"))) {\r\n                return 80; // Advantage\r\n            }\r\n        }\r\n        // Steel type\r\n        else if (keccak256(bytes(pTypeAttacker)) == keccak256(bytes(\"steel\"))) {\r\n            if (keccak256(bytes(pTypeDefender)) == keccak256(bytes(\"fire\")) ||\r\n                keccak256(bytes(pTypeDefender)) == keccak256(bytes(\"fighting\")) ||\r\n                keccak256(bytes(pTypeDefender)) == keccak256(bytes(\"ground\"))) {\r\n                return 30; // Disadvantage\r\n            } else if (keccak256(bytes(pTypeDefender)) == keccak256(bytes(\"ice\")) ||\r\n                keccak256(bytes(pTypeDefender)) == keccak256(bytes(\"rock\")) ||\r\n                keccak256(bytes(pTypeDefender)) == keccak256(bytes(\"fairy\"))) {\r\n                return 80; // Advantage\r\n            }\r\n        }\r\n        // Fairy type\r\n        else if (keccak256(bytes(pTypeAttacker)) == keccak256(bytes(\"fairy\"))) {\r\n            if (keccak256(bytes(pTypeDefender)) == keccak256(bytes(\"poison\")) ||\r\n                keccak256(bytes(pTypeDefender)) == keccak256(bytes(\"steel\"))) {\r\n                return 30; // Disadvantage\r\n            } else if (keccak256(bytes(pTypeDefender)) == keccak256(bytes(\"fighting\")) ||\r\n                keccak256(bytes(pTypeDefender)) == keccak256(bytes(\"dragon\")) ||\r\n                keccak256(bytes(pTypeDefender)) == keccak256(bytes(\"dark\"))) {\r\n                return 80; // Advantage\r\n            }\r\n        }\r\n        // Normal type\r\n        else if (keccak256(bytes(pTypeAttacker)) == keccak256(bytes(\"normal\"))) {\r\n            if (keccak256(bytes(pTypeDefender)) == keccak256(bytes(\"rock\")) ||\r\n                keccak256(bytes(pTypeDefender)) == keccak256(bytes(\"steel\"))\r\n                || keccak256(bytes(pTypeDefender)) == keccak256(bytes(\"ghost\"))) {\r\n                return 30; // Disadvantage\r\n            }\r\n        }\r\n        // If none of the conditions match, return 50 for neutral advantage\r\n        return 50;\r\n    }\r\n}",
  "sourcePath": "C:\\Users\\vande\\Schooljaar_2023_2024_Semester 1\\erasmus\\PokeBattle2\\PokeCoin\\contracts\\pokeBattle.sol",
  "compiler": {
    "name": "solc",
    "version": "0.8.17+commit.8df45f5f.Emscripten.clang"
  },
  "schemaVersion": "3.4.16",
  "updatedAt": "2024-06-07T12:32:24.004Z",
  "networkType": "ethereum",
  "devdoc": {
    "kind": "dev",
    "methods": {
      "isOwner()": {
        "returns": {
          "_0": "true if `msg.sender` is the owner of the contract."
        }
      },
      "owner()": {
        "returns": {
          "_0": "the address of the owner."
        }
      },
      "renounceOwnership()": {
        "details": "Allows the current owner to relinquish control of the contract."
      },
      "transferOwnership(address)": {
        "details": "Allows the current owner to transfer control of the contract to a newOwner.",
        "params": {
          "newOwner": "The address to transfer ownership to."
        }
      }
    },
    "version": 1
  },
  "userdoc": {
    "kind": "user",
    "methods": {
      "renounceOwnership()": {
        "notice": "Renouncing to ownership will leave the contract without an owner. It will not be possible to call the functions with the `onlyOwner` modifier anymore."
      }
    },
    "version": 1
  }
}