{
  "contractName": "PokeBattle",
  "abi": [
    {
      "inputs": [
        {
          "internalType": "address",
          "name": "pokeCoinAddress",
          "type": "address"
        }
      ],
      "stateMutability": "nonpayable",
      "type": "constructor"
    },
    {
      "anonymous": false,
      "inputs": [
        {
          "indexed": false,
          "internalType": "uint256",
          "name": "pokemonId",
          "type": "uint256"
        },
        {
          "indexed": false,
          "internalType": "string",
          "name": "name",
          "type": "string"
        },
        {
          "indexed": false,
          "internalType": "uint256",
          "name": "dna",
          "type": "uint256"
        },
        {
          "indexed": false,
          "internalType": "string",
          "name": "pType",
          "type": "string"
        }
      ],
      "name": "NewPokemon",
      "type": "event"
    },
    {
      "anonymous": false,
      "inputs": [
        {
          "indexed": true,
          "internalType": "address",
          "name": "previousOwner",
          "type": "address"
        },
        {
          "indexed": true,
          "internalType": "address",
          "name": "newOwner",
          "type": "address"
        }
      ],
      "name": "OwnershipTransferred",
      "type": "event"
    },
    {
      "inputs": [
        {
          "internalType": "string",
          "name": "_name",
          "type": "string"
        }
      ],
      "name": "buyPokemon",
      "outputs": [],
      "stateMutability": "payable",
      "type": "function",
      "payable": true
    },
    {
      "inputs": [
        {
          "internalType": "string",
          "name": "_name",
          "type": "string"
        }
      ],
      "name": "createPokemon",
      "outputs": [],
      "stateMutability": "nonpayable",
      "type": "function"
    },
    {
      "inputs": [
        {
          "internalType": "uint256",
          "name": "dna",
          "type": "uint256"
        }
      ],
      "name": "generateRandomType",
      "outputs": [
        {
          "internalType": "string",
          "name": "",
          "type": "string"
        }
      ],
      "stateMutability": "pure",
      "type": "function",
      "constant": true
    },
    {
      "inputs": [],
      "name": "isOwner",
      "outputs": [
        {
          "internalType": "bool",
          "name": "",
          "type": "bool"
        }
      ],
      "stateMutability": "view",
      "type": "function",
      "constant": true
    },
    {
      "inputs": [],
      "name": "owner",
      "outputs": [
        {
          "internalType": "address",
          "name": "",
          "type": "address"
        }
      ],
      "stateMutability": "view",
      "type": "function",
      "constant": true
    },
    {
      "inputs": [
        {
          "internalType": "address",
          "name": "",
          "type": "address"
        }
      ],
      "name": "ownerPokemonCount",
      "outputs": [
        {
          "internalType": "uint256",
          "name": "",
          "type": "uint256"
        }
      ],
      "stateMutability": "view",
      "type": "function",
      "constant": true
    },
    {
      "inputs": [],
      "name": "pokeCoinContract",
      "outputs": [
        {
          "internalType": "contract PokeCoin",
          "name": "",
          "type": "address"
        }
      ],
      "stateMutability": "view",
      "type": "function",
      "constant": true
    },
    {
      "inputs": [],
      "name": "pokemonBuyFee",
      "outputs": [
        {
          "internalType": "uint256",
          "name": "",
          "type": "uint256"
        }
      ],
      "stateMutability": "view",
      "type": "function",
      "constant": true
    },
    {
      "inputs": [
        {
          "internalType": "uint256",
          "name": "",
          "type": "uint256"
        }
      ],
      "name": "pokemonToOwner",
      "outputs": [
        {
          "internalType": "address",
          "name": "",
          "type": "address"
        }
      ],
      "stateMutability": "view",
      "type": "function",
      "constant": true
    },
    {
      "inputs": [
        {
          "internalType": "uint256",
          "name": "",
          "type": "uint256"
        }
      ],
      "name": "pokemons",
      "outputs": [
        {
          "internalType": "string",
          "name": "name",
          "type": "string"
        },
        {
          "internalType": "uint256",
          "name": "dna",
          "type": "uint256"
        },
        {
          "internalType": "string",
          "name": "pType",
          "type": "string"
        },
        {
          "internalType": "uint8",
          "name": "level",
          "type": "uint8"
        },
        {
          "internalType": "uint32",
          "name": "readyTime",
          "type": "uint32"
        },
        {
          "internalType": "uint16",
          "name": "winCount",
          "type": "uint16"
        },
        {
          "internalType": "uint16",
          "name": "lossCount",
          "type": "uint16"
        }
      ],
      "stateMutability": "view",
      "type": "function",
      "constant": true
    },
    {
      "inputs": [],
      "name": "renounceOwnership",
      "outputs": [],
      "stateMutability": "nonpayable",
      "type": "function"
    },
    {
      "inputs": [],
      "name": "rewardAmount",
      "outputs": [
        {
          "internalType": "uint256",
          "name": "",
          "type": "uint256"
        }
      ],
      "stateMutability": "view",
      "type": "function",
      "constant": true
    },
    {
      "inputs": [
        {
          "internalType": "uint256",
          "name": "_fee",
          "type": "uint256"
        }
      ],
      "name": "setBuyFee",
      "outputs": [],
      "stateMutability": "nonpayable",
      "type": "function"
    },
    {
      "inputs": [
        {
          "internalType": "address",
          "name": "newOwner",
          "type": "address"
        }
      ],
      "name": "transferOwnership",
      "outputs": [],
      "stateMutability": "nonpayable",
      "type": "function"
    },
    {
      "inputs": [
        {
          "internalType": "uint256",
          "name": "_pokemonId1",
          "type": "uint256"
        },
        {
          "internalType": "uint256",
          "name": "_pokemonId2",
          "type": "uint256"
        }
      ],
      "name": "battle",
      "outputs": [],
      "stateMutability": "nonpayable",
      "type": "function"
    }
  ],
  "bytecode": "0x60806040526201518060015561012c600555606460075560006008553480156200002857600080fd5b50604051620049723803806200497283398181016040528101906200004e9190620001bb565b336000806101000a81548173ffffffffffffffffffffffffffffffffffffffff021916908373ffffffffffffffffffffffffffffffffffffffff16021790555060008054906101000a900473ffffffffffffffffffffffffffffffffffffffff1673ffffffffffffffffffffffffffffffffffffffff16600073ffffffffffffffffffffffffffffffffffffffff167f8be0079c531659141344cd1fd0a4f28419497f9722a3daafe3b4186f6b6457e060405160405180910390a380600660006101000a81548173ffffffffffffffffffffffffffffffffffffffff021916908373ffffffffffffffffffffffffffffffffffffffff16021790555050620001ed565b600080fd5b600073ffffffffffffffffffffffffffffffffffffffff82169050919050565b6000620001838262000156565b9050919050565b620001958162000176565b8114620001a157600080fd5b50565b600081519050620001b5816200018a565b92915050565b600060208284031215620001d457620001d362000151565b5b6000620001e484828501620001a4565b91505092915050565b61477580620001fd6000396000f3fe6080604052600436106100e85760003560e01c8063715018a61161008a578063d8c2e37b11610059578063d8c2e37b146102fc578063e47b79d414610318578063f2fde38b14610341578063f7b2a7be1461036a576100e8565b8063715018a61461024c57806385831079146102635780638da5cb5b146102a65780638f32d59b146102d1576100e8565b80632a0c5221116100c65780632a0c5221146101905780632f7467b3146101b95780634d919073146101f657806370e1cdfd14610221576100e8565b8063037036d0146100ed5780630cc835a31461012a57806325963cca14610153575b600080fd5b3480156100f957600080fd5b50610114600480360381019061010f9190613c0f565b610395565b6040516101219190613ccc565b60405180910390f35b34801561013657600080fd5b50610151600480360381019061014c9190613c0f565b61088d565b005b34801561015f57600080fd5b5061017a60048036038101906101759190613d4c565b6108a8565b6040516101879190613d88565b60405180910390f35b34801561019c57600080fd5b506101b760048036038101906101b29190613da3565b6108c0565b005b3480156101c557600080fd5b506101e060048036038101906101db9190613c0f565b610f0d565b6040516101ed9190613df2565b60405180910390f35b34801561020257600080fd5b5061020b610f40565b6040516102189190613e6c565b60405180910390f35b34801561022d57600080fd5b50610236610f66565b6040516102439190613d88565b60405180910390f35b34801561025857600080fd5b50610261610f6c565b005b34801561026f57600080fd5b5061028a60048036038101906102859190613c0f565b61103b565b60405161029d9796959493929190613edf565b60405180910390f35b3480156102b257600080fd5b506102bb6111d6565b6040516102c89190613df2565b60405180910390f35b3480156102dd57600080fd5b506102e66111ff565b6040516102f39190613f77565b60405180910390f35b610316600480360381019061031191906140c7565b611256565b005b34801561032457600080fd5b5061033f600480360381019061033a91906140c7565b6112be565b005b34801561034d57600080fd5b5061036860048036038101906103639190613d4c565b611325565b005b34801561037657600080fd5b5061037f611342565b60405161038c9190613d88565b60405180910390f35b606060006012836103a6919061413f565b9050600081036103ee576040518060400160405280600681526020017f6e6f726d616c0000000000000000000000000000000000000000000000000000815250915050610888565b60018103610434576040518060400160405280600481526020017f6669726500000000000000000000000000000000000000000000000000000000815250915050610888565b6002810361047a576040518060400160405280600581526020017f7761746572000000000000000000000000000000000000000000000000000000815250915050610888565b600381036104c0576040518060400160405280600881526020017f656c656374726963000000000000000000000000000000000000000000000000815250915050610888565b60048103610506576040518060400160405280600581526020017f6772617373000000000000000000000000000000000000000000000000000000815250915050610888565b6005810361054c576040518060400160405280600381526020017f6963650000000000000000000000000000000000000000000000000000000000815250915050610888565b60068103610592576040518060400160405280600881526020017f6669676874696e67000000000000000000000000000000000000000000000000815250915050610888565b600781036105d8576040518060400160405280600681526020017f706f69736f6e0000000000000000000000000000000000000000000000000000815250915050610888565b6008810361061e576040518060400160405280600681526020017f67726f756e640000000000000000000000000000000000000000000000000000815250915050610888565b60098103610664576040518060400160405280600681526020017f666c79696e670000000000000000000000000000000000000000000000000000815250915050610888565b600a81036106aa576040518060400160405280600781526020017f7073796368696300000000000000000000000000000000000000000000000000815250915050610888565b600b81036106f0576040518060400160405280600381526020017f6275670000000000000000000000000000000000000000000000000000000000815250915050610888565b600c8103610736576040518060400160405280600481526020017f726f636b00000000000000000000000000000000000000000000000000000000815250915050610888565b600d810361077c576040518060400160405280600581526020017f67686f7374000000000000000000000000000000000000000000000000000000815250915050610888565b600e81036107c2576040518060400160405280600681526020017f647261676f6e0000000000000000000000000000000000000000000000000000815250915050610888565b600f8103610808576040518060400160405280600481526020017f6461726b00000000000000000000000000000000000000000000000000000000815250915050610888565b6010810361084e576040518060400160405280600581526020017f737465656c000000000000000000000000000000000000000000000000000000815250915050610888565b6040518060400160405280600581526020017f66616972790000000000000000000000000000000000000000000000000000008152509150505b919050565b6108956111ff565b61089e57600080fd5b8060058190555050565b60046020528060005260406000206000915090505481565b816003600082815260200190815260200160002060009054906101000a900473ffffffffffffffffffffffffffffffffffffffff1673ffffffffffffffffffffffffffffffffffffffff163373ffffffffffffffffffffffffffffffffffffffff161461092c57600080fd5b6000806002858154811061094357610942614170565b5b90600052602060002090600402016040518060e001604052908160008201805461096c906141ce565b80601f0160208091040260200160405190810160405280929190818152602001828054610998906141ce565b80156109e55780601f106109ba576101008083540402835291602001916109e5565b820191906000526020600020905b8154815290600101906020018083116109c857829003601f168201915b5050505050815260200160018201548152602001600282018054610a08906141ce565b80601f0160208091040260200160405190810160405280929190818152602001828054610a34906141ce565b8015610a815780601f10610a5657610100808354040283529160200191610a81565b820191906000526020600020905b815481529060010190602001808311610a6457829003601f168201915b505050505081526020016003820160009054906101000a900460ff1660ff1660ff1681526020016003820160019054906101000a900463ffffffff1663ffffffff1663ffffffff1681526020016003820160059054906101000a900461ffff1661ffff1661ffff1681526020016003820160079054906101000a900461ffff1661ffff1661ffff16815250509050600060028581548110610b2557610b24614170565b5b90600052602060002090600402016040518060e0016040529081600082018054610b4e906141ce565b80601f0160208091040260200160405190810160405280929190818152602001828054610b7a906141ce565b8015610bc75780601f10610b9c57610100808354040283529160200191610bc7565b820191906000526020600020905b815481529060010190602001808311610baa57829003601f168201915b5050505050815260200160018201548152602001600282018054610bea906141ce565b80601f0160208091040260200160405190810160405280929190818152602001828054610c16906141ce565b8015610c635780601f10610c3857610100808354040283529160200191610c63565b820191906000526020600020905b815481529060010190602001808311610c4657829003601f168201915b505050505081526020016003820160009054906101000a900460ff1660ff1660ff1681526020016003820160019054906101000a900463ffffffff1663ffffffff1663ffffffff1681526020016003820160059054906101000a900461ffff1661ffff1661ffff1681526020016003820160079054906101000a900461ffff1661ffff1661ffff168152505090506000610d0583604001518360400151611348565b93506000610d1360646137f5565b9050808510610dc0578360a0018051809190610d2e9061422e565b61ffff1661ffff16815250506064846060015160ff161015610d6757836060018051809190610d5c90614258565b60ff1660ff16815250505b8260c0018051809190610d799061422e565b61ffff1661ffff16815250506003600089815260200190815260200160002060009054906101000a900473ffffffffffffffffffffffffffffffffffffffff169150610e60565b8260a0018051809190610dd29061422e565b61ffff1661ffff16815250506064836060015160ff161015610e0b57826060018051809190610e0090614258565b60ff1660ff16815250505b8360c0018051809190610e1d9061422e565b61ffff1661ffff16815250506003600088815260200190815260200160002060009054906101000a900473ffffffffffffffffffffffffffffffffffffffff1691505b600660009054906101000a900473ffffffffffffffffffffffffffffffffffffffff1673ffffffffffffffffffffffffffffffffffffffff1663a9059cbb836007546040518363ffffffff1660e01b8152600401610ebf929190614281565b6020604051808303816000875af1158015610ede573d6000803e3d6000fd5b505050506040513d601f19601f82011682018060405250810190610f0291906142d6565b505050505050505050565b60036020528060005260406000206000915054906101000a900473ffffffffffffffffffffffffffffffffffffffff1681565b600660009054906101000a900473ffffffffffffffffffffffffffffffffffffffff1681565b60055481565b610f746111ff565b610f7d57600080fd5b600073ffffffffffffffffffffffffffffffffffffffff1660008054906101000a900473ffffffffffffffffffffffffffffffffffffffff1673ffffffffffffffffffffffffffffffffffffffff167f8be0079c531659141344cd1fd0a4f28419497f9722a3daafe3b4186f6b6457e060405160405180910390a360008060006101000a81548173ffffffffffffffffffffffffffffffffffffffff021916908373ffffffffffffffffffffffffffffffffffffffff160217905550565b6002818154811061104b57600080fd5b906000526020600020906004020160009150905080600001805461106e906141ce565b80601f016020809104026020016040519081016040528092919081815260200182805461109a906141ce565b80156110e75780601f106110bc576101008083540402835291602001916110e7565b820191906000526020600020905b8154815290600101906020018083116110ca57829003601f168201915b505050505090806001015490806002018054611102906141ce565b80601f016020809104026020016040519081016040528092919081815260200182805461112e906141ce565b801561117b5780601f106111505761010080835404028352916020019161117b565b820191906000526020600020905b81548152906001019060200180831161115e57829003601f168201915b5050505050908060030160009054906101000a900460ff16908060030160019054906101000a900463ffffffff16908060030160059054906101000a900461ffff16908060030160079054906101000a900461ffff16905087565b60008060009054906101000a900473ffffffffffffffffffffffffffffffffffffffff16905090565b60008060009054906101000a900473ffffffffffffffffffffffffffffffffffffffff1673ffffffffffffffffffffffffffffffffffffffff163373ffffffffffffffffffffffffffffffffffffffff1614905090565b600554341461126457600080fd5b61126c6111d6565b73ffffffffffffffffffffffffffffffffffffffff166108fc349081150290604051600060405180830381858888f193505050501580156112b1573d6000803e3d6000fd5b506112bb816112be565b50565b6000600460003373ffffffffffffffffffffffffffffffffffffffff1673ffffffffffffffffffffffffffffffffffffffff168152602001908152602001600020541461130a57600080fd5b600061131582613851565b90506113218282613889565b5050565b61132d6111ff565b61133657600080fd5b61133f81613acf565b50565b60075481565b60006040518060400160405280600481526020017f6669726500000000000000000000000000000000000000000000000000000000815250805190602001208380519060200120036115c2576040518060400160405280600581526020017f7761746572000000000000000000000000000000000000000000000000000000815250805190602001208280519060200120148061142757506040518060400160405280600481526020017f726f636b00000000000000000000000000000000000000000000000000000000815250805190602001208280519060200120145b8061147457506040518060400160405280600481526020017f6669726500000000000000000000000000000000000000000000000000000000815250805190602001208280519060200120145b1561148257601e90506137ef565b6040518060400160405280600581526020017f6772617373000000000000000000000000000000000000000000000000000000815250805190602001208280519060200120148061151557506040518060400160405280600381526020017f6963650000000000000000000000000000000000000000000000000000000000815250805190602001208280519060200120145b8061156257506040518060400160405280600381526020017f6275670000000000000000000000000000000000000000000000000000000000815250805190602001208280519060200120145b806115af57506040518060400160405280600581526020017f737465656c000000000000000000000000000000000000000000000000000000815250805190602001208280519060200120145b156115bd57605090506137ef565b6137ea565b6040518060400160405280600581526020017f7761746572000000000000000000000000000000000000000000000000000000815250805190602001208380519060200120036117a0576040518060400160405280600481526020017f6669726500000000000000000000000000000000000000000000000000000000815250805190602001208280519060200120148061169f57506040518060400160405280600581526020017f7761746572000000000000000000000000000000000000000000000000000000815250805190602001208280519060200120145b156116ad57601e90506137ef565b6040518060400160405280600581526020017f6772617373000000000000000000000000000000000000000000000000000000815250805190602001208280519060200120148061174057506040518060400160405280600681526020017f67726f756e640000000000000000000000000000000000000000000000000000815250805190602001208280519060200120145b8061178d57506040518060400160405280600481526020017f726f636b00000000000000000000000000000000000000000000000000000000815250805190602001208280519060200120145b1561179b57605090506137ef565b6137e9565b6040518060400160405280600581526020017f677261737300000000000000000000000000000000000000000000000000000081525080519060200120838051906020012003611aff576040518060400160405280600481526020017f6669726500000000000000000000000000000000000000000000000000000000815250805190602001208280519060200120148061187d57506040518060400160405280600681526020017f666c79696e670000000000000000000000000000000000000000000000000000815250805190602001208280519060200120145b806118ca57506040518060400160405280600381526020017f6275670000000000000000000000000000000000000000000000000000000000815250805190602001208280519060200120145b8061191757506040518060400160405280600681526020017f706f69736f6e0000000000000000000000000000000000000000000000000000815250805190602001208280519060200120145b8061196457506040518060400160405280600381526020017f6963650000000000000000000000000000000000000000000000000000000000815250805190602001208280519060200120145b806119b157506040518060400160405280600581526020017f737465656c000000000000000000000000000000000000000000000000000000815250805190602001208280519060200120145b806119fe57506040518060400160405280600681526020017f647261676f6e0000000000000000000000000000000000000000000000000000815250805190602001208280519060200120145b15611a0c57601e90506137ef565b6040518060400160405280600581526020017f77617465720000000000000000000000000000000000000000000000000000008152508051906020012082805190602001201480611a9f57506040518060400160405280600681526020017f67726f756e640000000000000000000000000000000000000000000000000000815250805190602001208280519060200120145b80611aec57506040518060400160405280600481526020017f726f636b00000000000000000000000000000000000000000000000000000000815250805190602001208280519060200120145b15611afa57605090506137ef565b6137e8565b6040518060400160405280600881526020017f656c65637472696300000000000000000000000000000000000000000000000081525080519060200120838051906020012003611c42576040518060400160405280600681526020017f67726f756e64000000000000000000000000000000000000000000000000000081525080519060200120828051906020012003611b9c57601e90506137ef565b6040518060400160405280600581526020017f77617465720000000000000000000000000000000000000000000000000000008152508051906020012082805190602001201480611c2f57506040518060400160405280600681526020017f666c79696e670000000000000000000000000000000000000000000000000000815250805190602001208280519060200120145b15611c3d57605090506137ef565b6137e7565b6040518060400160405280600381526020017f696365000000000000000000000000000000000000000000000000000000000081525080519060200120838051906020012003611f07576040518060400160405280600481526020017f66697265000000000000000000000000000000000000000000000000000000008152508051906020012082805190602001201480611d1f57506040518060400160405280600881526020017f6669676874696e67000000000000000000000000000000000000000000000000815250805190602001208280519060200120145b80611d6c57506040518060400160405280600481526020017f726f636b00000000000000000000000000000000000000000000000000000000815250805190602001208280519060200120145b80611db957506040518060400160405280600581526020017f737465656c000000000000000000000000000000000000000000000000000000815250805190602001208280519060200120145b15611dc757601e90506137ef565b6040518060400160405280600581526020017f67726173730000000000000000000000000000000000000000000000000000008152508051906020012082805190602001201480611e5a57506040518060400160405280600681526020017f67726f756e640000000000000000000000000000000000000000000000000000815250805190602001208280519060200120145b80611ea757506040518060400160405280600681526020017f666c79696e670000000000000000000000000000000000000000000000000000815250805190602001208280519060200120145b80611ef457506040518060400160405280600681526020017f647261676f6e0000000000000000000000000000000000000000000000000000815250805190602001208280519060200120145b15611f0257605090506137ef565b6137e6565b6040518060400160405280600881526020017f6669676874696e670000000000000000000000000000000000000000000000008152508051906020012083805190602001200361217f576040518060400160405280600681526020017f666c79696e6700000000000000000000000000000000000000000000000000008152508051906020012082805190602001201480611fe457506040518060400160405280600781526020017f7073796368696300000000000000000000000000000000000000000000000000815250805190602001208280519060200120145b8061203157506040518060400160405280600581526020017f6661697279000000000000000000000000000000000000000000000000000000815250805190602001208280519060200120145b1561203f57601e90506137ef565b6040518060400160405280600681526020017f6e6f726d616c000000000000000000000000000000000000000000000000000081525080519060200120828051906020012014806120d257506040518060400160405280600381526020017f6963650000000000000000000000000000000000000000000000000000000000815250805190602001208280519060200120145b8061211f57506040518060400160405280600481526020017f726f636b00000000000000000000000000000000000000000000000000000000815250805190602001208280519060200120145b8061216c57506040518060400160405280600481526020017f6461726b00000000000000000000000000000000000000000000000000000000815250805190602001208280519060200120145b1561217a57605090506137ef565b6137e5565b6040518060400160405280600681526020017f706f69736f6e0000000000000000000000000000000000000000000000000000815250805190602001208380519060200120036122c2576040518060400160405280600581526020017f737465656c0000000000000000000000000000000000000000000000000000008152508051906020012082805190602001200361221c57601e90506137ef565b6040518060400160405280600581526020017f677261737300000000000000000000000000000000000000000000000000000081525080519060200120828051906020012014806122af57506040518060400160405280600581526020017f6661697279000000000000000000000000000000000000000000000000000000815250805190602001208280519060200120145b156122bd57605090506137ef565b6137e4565b6040518060400160405280600681526020017f67726f756e64000000000000000000000000000000000000000000000000000081525080519060200120838051906020012003612587576040518060400160405280600581526020017f7761746572000000000000000000000000000000000000000000000000000000815250805190602001208280519060200120148061239f57506040518060400160405280600581526020017f6772617373000000000000000000000000000000000000000000000000000000815250805190602001208280519060200120145b806123ec57506040518060400160405280600381526020017f6963650000000000000000000000000000000000000000000000000000000000815250805190602001208280519060200120145b156123fa57601e90506137ef565b6040518060400160405280600481526020017f6669726500000000000000000000000000000000000000000000000000000000815250805190602001208280519060200120148061248d57506040518060400160405280600881526020017f656c656374726963000000000000000000000000000000000000000000000000815250805190602001208280519060200120145b806124da57506040518060400160405280600681526020017f706f69736f6e0000000000000000000000000000000000000000000000000000815250805190602001208280519060200120145b8061252757506040518060400160405280600481526020017f726f636b00000000000000000000000000000000000000000000000000000000815250805190602001208280519060200120145b8061257457506040518060400160405280600581526020017f737465656c000000000000000000000000000000000000000000000000000000815250805190602001208280519060200120145b1561258257605090506137ef565b6137e3565b6040518060400160405280600681526020017f666c79696e670000000000000000000000000000000000000000000000000000815250805190602001208380519060200120036127b2576040518060400160405280600881526020017f656c656374726963000000000000000000000000000000000000000000000000815250805190602001208280519060200120148061266457506040518060400160405280600481526020017f726f636b00000000000000000000000000000000000000000000000000000000815250805190602001208280519060200120145b806126b157506040518060400160405280600581526020017f737465656c000000000000000000000000000000000000000000000000000000815250805190602001208280519060200120145b156126bf57601e90506137ef565b6040518060400160405280600581526020017f6772617373000000000000000000000000000000000000000000000000000000815250805190602001208280519060200120148061275257506040518060400160405280600881526020017f6669676874696e67000000000000000000000000000000000000000000000000815250805190602001208280519060200120145b8061279f57506040518060400160405280600381526020017f6275670000000000000000000000000000000000000000000000000000000000815250805190602001208280519060200120145b156127ad57605090506137ef565b6137e2565b6040518060400160405280600781526020017f707379636869630000000000000000000000000000000000000000000000000081525080519060200120838051906020012003612990576040518060400160405280600381526020017f6275670000000000000000000000000000000000000000000000000000000000815250805190602001208280519060200120148061288f57506040518060400160405280600581526020017f67686f7374000000000000000000000000000000000000000000000000000000815250805190602001208280519060200120145b806128dc57506040518060400160405280600481526020017f6461726b00000000000000000000000000000000000000000000000000000000815250805190602001208280519060200120145b156128ea57601e90506137ef565b6040518060400160405280600881526020017f6669676874696e67000000000000000000000000000000000000000000000000815250805190602001208280519060200120148061297d57506040518060400160405280600681526020017f706f69736f6e0000000000000000000000000000000000000000000000000000815250805190602001208280519060200120145b1561298b57605090506137ef565b6137e1565b6040518060400160405280600381526020017f627567000000000000000000000000000000000000000000000000000000000081525080519060200120838051906020012003612bbb576040518060400160405280600481526020017f66697265000000000000000000000000000000000000000000000000000000008152508051906020012082805190602001201480612a6d57506040518060400160405280600681526020017f666c79696e670000000000000000000000000000000000000000000000000000815250805190602001208280519060200120145b80612aba57506040518060400160405280600481526020017f726f636b00000000000000000000000000000000000000000000000000000000815250805190602001208280519060200120145b15612ac857601e90506137ef565b6040518060400160405280600581526020017f67726173730000000000000000000000000000000000000000000000000000008152508051906020012082805190602001201480612b5b57506040518060400160405280600781526020017f7073796368696300000000000000000000000000000000000000000000000000815250805190602001208280519060200120145b80612ba857506040518060400160405280600481526020017f6461726b00000000000000000000000000000000000000000000000000000000815250805190602001208280519060200120145b15612bb657605090506137ef565b6137e0565b6040518060400160405280600481526020017f726f636b0000000000000000000000000000000000000000000000000000000081525080519060200120838051906020012003612e33576040518060400160405280600881526020017f6669676874696e670000000000000000000000000000000000000000000000008152508051906020012082805190602001201480612c9857506040518060400160405280600681526020017f67726f756e640000000000000000000000000000000000000000000000000000815250805190602001208280519060200120145b80612ce557506040518060400160405280600581526020017f737465656c000000000000000000000000000000000000000000000000000000815250805190602001208280519060200120145b15612cf357601e90506137ef565b6040518060400160405280600481526020017f66697265000000000000000000000000000000000000000000000000000000008152508051906020012082805190602001201480612d8657506040518060400160405280600381526020017f6963650000000000000000000000000000000000000000000000000000000000815250805190602001208280519060200120145b80612dd357506040518060400160405280600681526020017f666c79696e670000000000000000000000000000000000000000000000000000815250805190602001208280519060200120145b80612e2057506040518060400160405280600381526020017f6275670000000000000000000000000000000000000000000000000000000000815250805190602001208280519060200120145b15612e2e57605090506137ef565b6137df565b6040518060400160405280600581526020017f67686f737400000000000000000000000000000000000000000000000000000081525080519060200120838051906020012003612fc4576040518060400160405280600681526020017f6e6f726d616c00000000000000000000000000000000000000000000000000008152508051906020012082805190602001201480612f1057506040518060400160405280600781526020017f7073796368696300000000000000000000000000000000000000000000000000815250805190602001208280519060200120145b15612f1e57601e90506137ef565b6040518060400160405280600581526020017f67686f73740000000000000000000000000000000000000000000000000000008152508051906020012082805190602001201480612fb157506040518060400160405280600481526020017f6461726b00000000000000000000000000000000000000000000000000000000815250805190602001208280519060200120145b15612fbf57605090506137ef565b6137de565b6040518060400160405280600681526020017f647261676f6e0000000000000000000000000000000000000000000000000000815250805190602001208380519060200120036130b9576040518060400160405280600581526020017f737465656c0000000000000000000000000000000000000000000000000000008152508051906020012082805190602001200361306157601e90506137ef565b6040518060400160405280600681526020017f647261676f6e0000000000000000000000000000000000000000000000000000815250805190602001208280519060200120036130b457605090506137ef565b6137dd565b6040518060400160405280600481526020017f6461726b0000000000000000000000000000000000000000000000000000000081525080519060200120838051906020012003613297576040518060400160405280600881526020017f6669676874696e67000000000000000000000000000000000000000000000000815250805190602001208280519060200120148061319657506040518060400160405280600381526020017f6275670000000000000000000000000000000000000000000000000000000000815250805190602001208280519060200120145b806131e357506040518060400160405280600581526020017f6661697279000000000000000000000000000000000000000000000000000000815250805190602001208280519060200120145b156131f157601e90506137ef565b6040518060400160405280600581526020017f67686f7374000000000000000000000000000000000000000000000000000000815250805190602001208280519060200120148061328457506040518060400160405280600781526020017f7073796368696300000000000000000000000000000000000000000000000000815250805190602001208280519060200120145b1561329257605090506137ef565b6137dc565b6040518060400160405280600581526020017f737465656c000000000000000000000000000000000000000000000000000000815250805190602001208380519060200120036134c2576040518060400160405280600481526020017f6669726500000000000000000000000000000000000000000000000000000000815250805190602001208280519060200120148061337457506040518060400160405280600881526020017f6669676874696e67000000000000000000000000000000000000000000000000815250805190602001208280519060200120145b806133c157506040518060400160405280600681526020017f67726f756e640000000000000000000000000000000000000000000000000000815250805190602001208280519060200120145b156133cf57601e90506137ef565b6040518060400160405280600381526020017f6963650000000000000000000000000000000000000000000000000000000000815250805190602001208280519060200120148061346257506040518060400160405280600481526020017f726f636b00000000000000000000000000000000000000000000000000000000815250805190602001208280519060200120145b806134af57506040518060400160405280600581526020017f6661697279000000000000000000000000000000000000000000000000000000815250805190602001208280519060200120145b156134bd57605090506137ef565b6137db565b6040518060400160405280600581526020017f6661697279000000000000000000000000000000000000000000000000000000815250805190602001208380519060200120036136a0576040518060400160405280600681526020017f706f69736f6e0000000000000000000000000000000000000000000000000000815250805190602001208280519060200120148061359f57506040518060400160405280600581526020017f737465656c000000000000000000000000000000000000000000000000000000815250805190602001208280519060200120145b156135ad57601e90506137ef565b6040518060400160405280600881526020017f6669676874696e67000000000000000000000000000000000000000000000000815250805190602001208280519060200120148061364057506040518060400160405280600681526020017f647261676f6e0000000000000000000000000000000000000000000000000000815250805190602001208280519060200120145b8061368d57506040518060400160405280600481526020017f6461726b00000000000000000000000000000000000000000000000000000000815250805190602001208280519060200120145b1561369b57605090506137ef565b6137da565b6040518060400160405280600681526020017f6e6f726d616c0000000000000000000000000000000000000000000000000000815250805190602001208380519060200120036137d9576040518060400160405280600481526020017f726f636b00000000000000000000000000000000000000000000000000000000815250805190602001208280519060200120148061377d57506040518060400160405280600581526020017f737465656c000000000000000000000000000000000000000000000000000000815250805190602001208280519060200120145b806137ca57506040518060400160405280600581526020017f67686f7374000000000000000000000000000000000000000000000000000000815250805190602001208280519060200120145b156137d857601e90506137ef565b5b5b5b5b5b5b5b5b5b5b5b5b5b5b5b5b5b5b603290505b92915050565b60006008600081548092919061380a90614303565b9190505550814233600854604051602001613827939291906143b4565b6040516020818303038152906040528051906020012060001c61384a919061413f565b9050919050565b60008082604051602001613865919061442d565b6040516020818303038152906040528051906020012060001c905080915050919050565b600061389482610395565b905060026040518060e00160405280858152602001848152602001838152602001600160ff168152602001600154426138cd9190614444565b63ffffffff168152602001600061ffff168152602001600061ffff168152509080600181540180825580915050600190039060005260206000209060040201600090919091909150600082015181600001908161392a919061461a565b5060208201518160010155604082015181600201908161394a919061461a565b5060608201518160030160006101000a81548160ff021916908360ff16021790555060808201518160030160016101000a81548163ffffffff021916908363ffffffff16021790555060a08201518160030160056101000a81548161ffff021916908361ffff16021790555060c08201518160030160076101000a81548161ffff021916908361ffff160217905550505060006002805490509050336003600083815260200190815260200160002060006101000a81548173ffffffffffffffffffffffffffffffffffffffff021916908373ffffffffffffffffffffffffffffffffffffffff160217905550600460003373ffffffffffffffffffffffffffffffffffffffff1673ffffffffffffffffffffffffffffffffffffffff1681526020019081526020016000206000815480929190613a8790614303565b91905055507f28edc1b769f6dd69d6f4439dbc820c85cc48492a1855ece80e8759184207b71d81858585604051613ac194939291906146ec565b60405180910390a150505050565b600073ffffffffffffffffffffffffffffffffffffffff168173ffffffffffffffffffffffffffffffffffffffff1603613b0857600080fd5b8073ffffffffffffffffffffffffffffffffffffffff1660008054906101000a900473ffffffffffffffffffffffffffffffffffffffff1673ffffffffffffffffffffffffffffffffffffffff167f8be0079c531659141344cd1fd0a4f28419497f9722a3daafe3b4186f6b6457e060405160405180910390a3806000806101000a81548173ffffffffffffffffffffffffffffffffffffffff021916908373ffffffffffffffffffffffffffffffffffffffff16021790555050565b6000604051905090565b600080fd5b600080fd5b6000819050919050565b613bec81613bd9565b8114613bf757600080fd5b50565b600081359050613c0981613be3565b92915050565b600060208284031215613c2557613c24613bcf565b5b6000613c3384828501613bfa565b91505092915050565b600081519050919050565b600082825260208201905092915050565b60005b83811015613c76578082015181840152602081019050613c5b565b60008484015250505050565b6000601f19601f8301169050919050565b6000613c9e82613c3c565b613ca88185613c47565b9350613cb8818560208601613c58565b613cc181613c82565b840191505092915050565b60006020820190508181036000830152613ce68184613c93565b905092915050565b600073ffffffffffffffffffffffffffffffffffffffff82169050919050565b6000613d1982613cee565b9050919050565b613d2981613d0e565b8114613d3457600080fd5b50565b600081359050613d4681613d20565b92915050565b600060208284031215613d6257613d61613bcf565b5b6000613d7084828501613d37565b91505092915050565b613d8281613bd9565b82525050565b6000602082019050613d9d6000830184613d79565b92915050565b60008060408385031215613dba57613db9613bcf565b5b6000613dc885828601613bfa565b9250506020613dd985828601613bfa565b9150509250929050565b613dec81613d0e565b82525050565b6000602082019050613e076000830184613de3565b92915050565b6000819050919050565b6000613e32613e2d613e2884613cee565b613e0d565b613cee565b9050919050565b6000613e4482613e17565b9050919050565b6000613e5682613e39565b9050919050565b613e6681613e4b565b82525050565b6000602082019050613e816000830184613e5d565b92915050565b600060ff82169050919050565b613e9d81613e87565b82525050565b600063ffffffff82169050919050565b613ebc81613ea3565b82525050565b600061ffff82169050919050565b613ed981613ec2565b82525050565b600060e0820190508181036000830152613ef9818a613c93565b9050613f086020830189613d79565b8181036040830152613f1a8188613c93565b9050613f296060830187613e94565b613f366080830186613eb3565b613f4360a0830185613ed0565b613f5060c0830184613ed0565b98975050505050505050565b60008115159050919050565b613f7181613f5c565b82525050565b6000602082019050613f8c6000830184613f68565b92915050565b600080fd5b600080fd5b7f4e487b7100000000000000000000000000000000000000000000000000000000600052604160045260246000fd5b613fd482613c82565b810181811067ffffffffffffffff82111715613ff357613ff2613f9c565b5b80604052505050565b6000614006613bc5565b90506140128282613fcb565b919050565b600067ffffffffffffffff82111561403257614031613f9c565b5b61403b82613c82565b9050602081019050919050565b82818337600083830152505050565b600061406a61406584614017565b613ffc565b90508281526020810184848401111561408657614085613f97565b5b614091848285614048565b509392505050565b600082601f8301126140ae576140ad613f92565b5b81356140be848260208601614057565b91505092915050565b6000602082840312156140dd576140dc613bcf565b5b600082013567ffffffffffffffff8111156140fb576140fa613bd4565b5b61410784828501614099565b91505092915050565b7f4e487b7100000000000000000000000000000000000000000000000000000000600052601260045260246000fd5b600061414a82613bd9565b915061415583613bd9565b92508261416557614164614110565b5b828206905092915050565b7f4e487b7100000000000000000000000000000000000000000000000000000000600052603260045260246000fd5b7f4e487b7100000000000000000000000000000000000000000000000000000000600052602260045260246000fd5b600060028204905060018216806141e657607f821691505b6020821081036141f9576141f861419f565b5b50919050565b7f4e487b7100000000000000000000000000000000000000000000000000000000600052601160045260246000fd5b600061423982613ec2565b915061ffff820361424d5761424c6141ff565b5b600182019050919050565b600061426382613e87565b915060ff8203614276576142756141ff565b5b600182019050919050565b60006040820190506142966000830185613de3565b6142a36020830184613d79565b9392505050565b6142b381613f5c565b81146142be57600080fd5b50565b6000815190506142d0816142aa565b92915050565b6000602082840312156142ec576142eb613bcf565b5b60006142fa848285016142c1565b91505092915050565b600061430e82613bd9565b91507fffffffffffffffffffffffffffffffffffffffffffffffffffffffffffffffff82036143405761433f6141ff565b5b600182019050919050565b6000819050919050565b61436661436182613bd9565b61434b565b82525050565b60008160601b9050919050565b60006143848261436c565b9050919050565b600061439682614379565b9050919050565b6143ae6143a982613d0e565b61438b565b82525050565b60006143c08286614355565b6020820191506143d0828561439d565b6014820191506143e08284614355565b602082019150819050949350505050565b600081905092915050565b600061440782613c3c565b61441181856143f1565b9350614421818560208601613c58565b80840191505092915050565b600061443982846143fc565b915081905092915050565b600061444f82613bd9565b915061445a83613bd9565b9250828201905080821115614472576144716141ff565b5b92915050565b60008190508160005260206000209050919050565b60006020601f8301049050919050565b600082821b905092915050565b6000600883026144da7fffffffffffffffffffffffffffffffffffffffffffffffffffffffffffffffff8261449d565b6144e4868361449d565b95508019841693508086168417925050509392505050565b600061451761451261450d84613bd9565b613e0d565b613bd9565b9050919050565b6000819050919050565b614531836144fc565b61454561453d8261451e565b8484546144aa565b825550505050565b600090565b61455a61454d565b614565818484614528565b505050565b5b818110156145895761457e600082614552565b60018101905061456b565b5050565b601f8211156145ce5761459f81614478565b6145a88461448d565b810160208510156145b7578190505b6145cb6145c38561448d565b83018261456a565b50505b505050565b600082821c905092915050565b60006145f1600019846008026145d3565b1980831691505092915050565b600061460a83836145e0565b9150826002028217905092915050565b61462382613c3c565b67ffffffffffffffff81111561463c5761463b613f9c565b5b61464682546141ce565b61465182828561458d565b600060209050601f8311600181146146845760008415614672578287015190505b61467c85826145fe565b8655506146e4565b601f19841661469286614478565b60005b828110156146ba57848901518255600182019150602085019450602081019050614695565b868310156146d757848901516146d3601f8916826145e0565b8355505b6001600288020188555050505b505050505050565b60006080820190506147016000830187613d79565b81810360208301526147138186613c93565b90506147226040830185613d79565b81810360608301526147348184613c93565b90509594505050505056fea264697066735822122052ca4c7fd5ef377089bdea14560f1725b44290dcfb9728d3804c59474a87916f64736f6c63430008110033",
  "immutableReferences": {},
  "source": "// SPDX-License-Identifier: MIT\r\npragma solidity ^0.8.0;\r\n\r\n//safeMath isn't necassary anymore when using solidity 0.8+\r\n//https://ethereum.stackexchange.com/questions/140714/how-to-do-safemath-with-solidity-0-8-0\r\n//https://metaschool.so/articles/use-safemath-sol-into-contract/\r\n//import \"./safeMath.sol\";\r\nimport \"./pokeHelper.sol\";\r\nimport \"./pokeCoin.sol\";\r\n\r\n\r\ncontract PokeBattle is pokeHelper {\r\n    PokeCoin public pokeCoinContract; \r\n\r\n    constructor(address pokeCoinAddress) {\r\n        pokeCoinContract = PokeCoin(pokeCoinAddress);\r\n    }\r\n\r\n    uint256 public rewardAmount = 100;\r\n    uint randNonce = 0;\r\n\r\n    function randMod(uint _modulus) internal returns(uint) {\r\n        randNonce++;\r\n        return uint(keccak256(abi.encodePacked(block.timestamp, msg.sender, randNonce))) % _modulus;\r\n    }\r\n\r\n    function battle(uint256 _pokemonId1, uint256 _pokemonId2) public ownerOf(_pokemonId1){\r\n        uint attackVictoryProbability;\r\n\r\n        Pokemon memory pokemon1 = pokemons[_pokemonId1];\r\n        Pokemon memory pokemon2 = pokemons[_pokemonId2];\r\n\r\n        //battle function\r\n        address winner;\r\n        attackVictoryProbability = typeAdvantage(pokemon1.pType, pokemon2.pType);\r\n        uint rand = randMod(100);\r\n        if(attackVictoryProbability >= rand) {\r\n            pokemon1.winCount++;\r\n            if(pokemon1.level < 100){\r\n                pokemon1.level++;\r\n            }\r\n            pokemon2.lossCount++;\r\n            winner = pokemonToOwner[_pokemonId1];\r\n        }else{\r\n            pokemon2.winCount++;\r\n            if(pokemon2.level < 100){\r\n                pokemon2.level++;\r\n            }\r\n            pokemon1.lossCount++;\r\n            winner = pokemonToOwner[_pokemonId2];\r\n        }\r\n        pokeCoinContract.transfer(winner, rewardAmount);\r\n    }\r\n\r\nfunction typeAdvantage(string memory pTypeAttacker, string memory pTypeDefender) internal pure returns (uint){\r\n        // Fire type\r\n        if (keccak256(bytes(pTypeAttacker)) == keccak256(bytes(\"fire\"))) {\r\n            if (keccak256(bytes(pTypeDefender)) == keccak256(bytes(\"water\")) ||\r\n                keccak256(bytes(pTypeDefender)) == keccak256(bytes(\"rock\")) ||\r\n                keccak256(bytes(pTypeDefender)) == keccak256(bytes(\"fire\"))) {\r\n                return 30; // Disadvantage\r\n            } else if (keccak256(bytes(pTypeDefender)) == keccak256(bytes(\"grass\")) ||\r\n                keccak256(bytes(pTypeDefender)) == keccak256(bytes(\"ice\")) ||\r\n                keccak256(bytes(pTypeDefender)) == keccak256(bytes(\"bug\")) ||\r\n                keccak256(bytes(pTypeDefender)) == keccak256(bytes(\"steel\"))) {\r\n                return 80; // Advantage\r\n            }\r\n        } \r\n        // Water type\r\n        else if (keccak256(bytes(pTypeAttacker)) == keccak256(bytes(\"water\"))) {\r\n            if (keccak256(bytes(pTypeDefender)) == keccak256(bytes(\"fire\")) ||\r\n                keccak256(bytes(pTypeDefender)) == keccak256(bytes(\"water\"))) {\r\n                return 30; // Disadvantage\r\n            } else if (keccak256(bytes(pTypeDefender)) == keccak256(bytes(\"grass\")) ||\r\n                keccak256(bytes(pTypeDefender)) == keccak256(bytes(\"ground\")) ||\r\n                keccak256(bytes(pTypeDefender)) == keccak256(bytes(\"rock\"))) {\r\n                return 80; // Advantage\r\n            }\r\n        }\r\n        // Grass type\r\n        else if (keccak256(bytes(pTypeAttacker)) == keccak256(bytes(\"grass\"))) {\r\n            if (keccak256(bytes(pTypeDefender)) == keccak256(bytes(\"fire\")) ||\r\n                keccak256(bytes(pTypeDefender)) == keccak256(bytes(\"flying\")) ||\r\n                keccak256(bytes(pTypeDefender)) == keccak256(bytes(\"bug\")) ||\r\n                keccak256(bytes(pTypeDefender)) == keccak256(bytes(\"poison\")) ||\r\n                keccak256(bytes(pTypeDefender)) == keccak256(bytes(\"ice\")) ||\r\n                keccak256(bytes(pTypeDefender)) == keccak256(bytes(\"steel\")) ||\r\n                keccak256(bytes(pTypeDefender)) == keccak256(bytes(\"dragon\"))) {\r\n                return 30; // Disadvantage\r\n            } else if (keccak256(bytes(pTypeDefender)) == keccak256(bytes(\"water\")) ||\r\n                keccak256(bytes(pTypeDefender)) == keccak256(bytes(\"ground\")) ||\r\n                keccak256(bytes(pTypeDefender)) == keccak256(bytes(\"rock\"))) {\r\n                return 80; // Advantage\r\n            }\r\n        }\r\n        // Electric type\r\n        else if (keccak256(bytes(pTypeAttacker)) == keccak256(bytes(\"electric\"))) {\r\n            if (keccak256(bytes(pTypeDefender)) == keccak256(bytes(\"ground\"))) {\r\n                return 30; // Disadvantage\r\n            } else if (keccak256(bytes(pTypeDefender)) == keccak256(bytes(\"water\")) ||\r\n                keccak256(bytes(pTypeDefender)) == keccak256(bytes(\"flying\"))) {\r\n                return 80; // Advantage\r\n            }\r\n        }\r\n        // Ice type\r\n        else if (keccak256(bytes(pTypeAttacker)) == keccak256(bytes(\"ice\"))) {\r\n            if (keccak256(bytes(pTypeDefender)) == keccak256(bytes(\"fire\")) ||\r\n                keccak256(bytes(pTypeDefender)) == keccak256(bytes(\"fighting\")) ||\r\n                keccak256(bytes(pTypeDefender)) == keccak256(bytes(\"rock\")) ||\r\n                keccak256(bytes(pTypeDefender)) == keccak256(bytes(\"steel\"))) {\r\n                return 30; // Disadvantage\r\n            } else if (keccak256(bytes(pTypeDefender)) == keccak256(bytes(\"grass\")) ||\r\n                keccak256(bytes(pTypeDefender)) == keccak256(bytes(\"ground\")) ||\r\n                keccak256(bytes(pTypeDefender)) == keccak256(bytes(\"flying\")) ||\r\n                keccak256(bytes(pTypeDefender)) == keccak256(bytes(\"dragon\"))) {\r\n                return 80; // Advantage\r\n            }\r\n        }\r\n        // Fighting type\r\n        else if (keccak256(bytes(pTypeAttacker)) == keccak256(bytes(\"fighting\"))) {\r\n            if (keccak256(bytes(pTypeDefender)) == keccak256(bytes(\"flying\")) ||\r\n                keccak256(bytes(pTypeDefender)) == keccak256(bytes(\"psychic\")) ||\r\n                keccak256(bytes(pTypeDefender)) == keccak256(bytes(\"fairy\"))) {\r\n                return 30; // Disadvantage\r\n            } else if (keccak256(bytes(pTypeDefender)) == keccak256(bytes(\"normal\")) ||\r\n                keccak256(bytes(pTypeDefender)) == keccak256(bytes(\"ice\")) ||\r\n                keccak256(bytes(pTypeDefender)) == keccak256(bytes(\"rock\")) ||\r\n                keccak256(bytes(pTypeDefender)) == keccak256(bytes(\"dark\"))) {\r\n                return 80; // Advantage\r\n            }\r\n        }\r\n        // Poison type\r\n        else if (keccak256(bytes(pTypeAttacker)) == keccak256(bytes(\"poison\"))) {\r\n            if (keccak256(bytes(pTypeDefender)) == keccak256(bytes(\"steel\"))) {\r\n                return 30; // Disadvantage\r\n            } else if (keccak256(bytes(pTypeDefender)) == keccak256(bytes(\"grass\")) ||\r\n                keccak256(bytes(pTypeDefender)) == keccak256(bytes(\"fairy\"))) {\r\n                return 80; // Advantage\r\n            }\r\n        }\r\n        //ground type\r\n        else if (keccak256(bytes(pTypeAttacker)) == keccak256(bytes(\"ground\"))) {\r\n            if (keccak256(bytes(pTypeDefender)) == keccak256(bytes(\"water\")) ||\r\n                keccak256(bytes(pTypeDefender)) == keccak256(bytes(\"grass\")) ||\r\n                keccak256(bytes(pTypeDefender)) == keccak256(bytes(\"ice\"))) {\r\n                return 30; // Disadvantage\r\n            } else if (keccak256(bytes(pTypeDefender)) == keccak256(bytes(\"fire\")) ||\r\n                keccak256(bytes(pTypeDefender)) == keccak256(bytes(\"electric\")) ||\r\n                keccak256(bytes(pTypeDefender)) == keccak256(bytes(\"poison\")) ||\r\n                keccak256(bytes(pTypeDefender)) == keccak256(bytes(\"rock\")) ||\r\n                keccak256(bytes(pTypeDefender)) == keccak256(bytes(\"steel\"))) {\r\n                return 80; // Advantage\r\n            }\r\n        }\r\n        // Flying type\r\n        else if (keccak256(bytes(pTypeAttacker)) == keccak256(bytes(\"flying\"))) {\r\n            if (keccak256(bytes(pTypeDefender)) == keccak256(bytes(\"electric\")) ||\r\n                keccak256(bytes(pTypeDefender)) == keccak256(bytes(\"rock\")) ||\r\n                keccak256(bytes(pTypeDefender)) == keccak256(bytes(\"steel\"))) {\r\n                return 30; // Disadvantage\r\n            } else if (keccak256(bytes(pTypeDefender)) == keccak256(bytes(\"grass\")) ||\r\n                keccak256(bytes(pTypeDefender)) == keccak256(bytes(\"fighting\")) ||\r\n                keccak256(bytes(pTypeDefender)) == keccak256(bytes(\"bug\"))) {\r\n                return 80; // Advantage\r\n            }\r\n        }\r\n        // Psychic type\r\n        else if (keccak256(bytes(pTypeAttacker)) == keccak256(bytes(\"psychic\"))) {\r\n            if (keccak256(bytes(pTypeDefender)) == keccak256(bytes(\"bug\")) ||\r\n                keccak256(bytes(pTypeDefender)) == keccak256(bytes(\"ghost\")) ||\r\n                keccak256(bytes(pTypeDefender)) == keccak256(bytes(\"dark\"))) {\r\n                return 30; // Disadvantage\r\n            } else if (keccak256(bytes(pTypeDefender)) == keccak256(bytes(\"fighting\")) ||\r\n                keccak256(bytes(pTypeDefender)) == keccak256(bytes(\"poison\"))) {\r\n                return 80; // Advantage\r\n            }\r\n        }\r\n        // Bug type\r\n        else if (keccak256(bytes(pTypeAttacker)) == keccak256(bytes(\"bug\"))) {\r\n            if (keccak256(bytes(pTypeDefender)) == keccak256(bytes(\"fire\")) ||\r\n                keccak256(bytes(pTypeDefender)) == keccak256(bytes(\"flying\")) ||\r\n                keccak256(bytes(pTypeDefender)) == keccak256(bytes(\"rock\"))) {\r\n                return 30; // Disadvantage\r\n            } else if (keccak256(bytes(pTypeDefender)) == keccak256(bytes(\"grass\")) ||\r\n                keccak256(bytes(pTypeDefender)) == keccak256(bytes(\"psychic\")) ||\r\n                keccak256(bytes(pTypeDefender)) == keccak256(bytes(\"dark\"))) {\r\n                return 80; // Advantage\r\n            }\r\n        }\r\n        // Rock type\r\n        else if (keccak256(bytes(pTypeAttacker)) == keccak256(bytes(\"rock\"))) {\r\n            if (keccak256(bytes(pTypeDefender)) == keccak256(bytes(\"fighting\")) ||\r\n                keccak256(bytes(pTypeDefender)) == keccak256(bytes(\"ground\")) ||\r\n                keccak256(bytes(pTypeDefender)) == keccak256(bytes(\"steel\"))) {\r\n                return 30; // Disadvantage\r\n            } else if (keccak256(bytes(pTypeDefender)) == keccak256(bytes(\"fire\")) ||\r\n                keccak256(bytes(pTypeDefender)) == keccak256(bytes(\"ice\")) ||\r\n                keccak256(bytes(pTypeDefender)) == keccak256(bytes(\"flying\")) ||\r\n                keccak256(bytes(pTypeDefender)) == keccak256(bytes(\"bug\"))) {\r\n                return 80; // Advantage\r\n            }\r\n        }\r\n        // Ghost type\r\n        else if (keccak256(bytes(pTypeAttacker)) == keccak256(bytes(\"ghost\"))) {\r\n            if (keccak256(bytes(pTypeDefender)) == keccak256(bytes(\"normal\")) ||\r\n                keccak256(bytes(pTypeDefender)) == keccak256(bytes(\"psychic\"))) {\r\n                return 30; // Disadvantage\r\n            } else if (keccak256(bytes(pTypeDefender)) == keccak256(bytes(\"ghost\")) ||\r\n                keccak256(bytes(pTypeDefender)) == keccak256(bytes(\"dark\"))) {\r\n                return 80; // Advantage\r\n            }\r\n        }\r\n        // Dragon type\r\n        else if (keccak256(bytes(pTypeAttacker)) == keccak256(bytes(\"dragon\"))) {\r\n            if (keccak256(bytes(pTypeDefender)) == keccak256(bytes(\"steel\"))) {\r\n                return 30; // Disadvantage\r\n            } else if (keccak256(bytes(pTypeDefender)) == keccak256(bytes(\"dragon\"))) {\r\n                return 80; // Advantage\r\n            }\r\n        }\r\n        // Dark type\r\n        else if (keccak256(bytes(pTypeAttacker)) == keccak256(bytes(\"dark\"))) {\r\n            if (keccak256(bytes(pTypeDefender)) == keccak256(bytes(\"fighting\")) ||\r\n                keccak256(bytes(pTypeDefender)) == keccak256(bytes(\"bug\")) ||\r\n                keccak256(bytes(pTypeDefender)) == keccak256(bytes(\"fairy\"))) {\r\n                return 30; // Disadvantage\r\n            } else if (keccak256(bytes(pTypeDefender)) == keccak256(bytes(\"ghost\")) ||\r\n                keccak256(bytes(pTypeDefender)) == keccak256(bytes(\"psychic\"))) {\r\n                return 80; // Advantage\r\n            }\r\n        }\r\n        // Steel type\r\n        else if (keccak256(bytes(pTypeAttacker)) == keccak256(bytes(\"steel\"))) {\r\n            if (keccak256(bytes(pTypeDefender)) == keccak256(bytes(\"fire\")) ||\r\n                keccak256(bytes(pTypeDefender)) == keccak256(bytes(\"fighting\")) ||\r\n                keccak256(bytes(pTypeDefender)) == keccak256(bytes(\"ground\"))) {\r\n                return 30; // Disadvantage\r\n            } else if (keccak256(bytes(pTypeDefender)) == keccak256(bytes(\"ice\")) ||\r\n                keccak256(bytes(pTypeDefender)) == keccak256(bytes(\"rock\")) ||\r\n                keccak256(bytes(pTypeDefender)) == keccak256(bytes(\"fairy\"))) {\r\n                return 80; // Advantage\r\n            }\r\n        }\r\n        // Fairy type\r\n        else if (keccak256(bytes(pTypeAttacker)) == keccak256(bytes(\"fairy\"))) {\r\n            if (keccak256(bytes(pTypeDefender)) == keccak256(bytes(\"poison\")) ||\r\n                keccak256(bytes(pTypeDefender)) == keccak256(bytes(\"steel\"))) {\r\n                return 30; // Disadvantage\r\n            } else if (keccak256(bytes(pTypeDefender)) == keccak256(bytes(\"fighting\")) ||\r\n                keccak256(bytes(pTypeDefender)) == keccak256(bytes(\"dragon\")) ||\r\n                keccak256(bytes(pTypeDefender)) == keccak256(bytes(\"dark\"))) {\r\n                return 80; // Advantage\r\n            }\r\n        }\r\n        // Normal type\r\n        else if (keccak256(bytes(pTypeAttacker)) == keccak256(bytes(\"normal\"))) {\r\n            if (keccak256(bytes(pTypeDefender)) == keccak256(bytes(\"rock\")) ||\r\n                keccak256(bytes(pTypeDefender)) == keccak256(bytes(\"steel\"))\r\n                || keccak256(bytes(pTypeDefender)) == keccak256(bytes(\"ghost\"))) {\r\n                return 30; // Disadvantage\r\n            }\r\n        }\r\n        // If none of the conditions match, return 50 for neutral advantage\r\n        return 50;\r\n    }\r\n}",
  "sourcePath": "C:\\Users\\vande\\Schooljaar_2023_2024_Semester 1\\erasmus\\PokeBattle\\contracts\\pokeBattle.sol",
  "compiler": {
    "name": "solc",
    "version": "0.8.17+commit.8df45f5f.Emscripten.clang"
  },
  "schemaVersion": "3.4.16",
  "updatedAt": "2024-06-06T15:23:58.558Z",
  "networkType": "ethereum",
  "devdoc": {
    "kind": "dev",
    "methods": {
      "isOwner()": {
        "returns": {
          "_0": "true if `msg.sender` is the owner of the contract."
        }
      },
      "owner()": {
        "returns": {
          "_0": "the address of the owner."
        }
      },
      "renounceOwnership()": {
        "details": "Allows the current owner to relinquish control of the contract."
      },
      "transferOwnership(address)": {
        "details": "Allows the current owner to transfer control of the contract to a newOwner.",
        "params": {
          "newOwner": "The address to transfer ownership to."
        }
      }
    },
    "version": 1
  },
  "userdoc": {
    "kind": "user",
    "methods": {
      "renounceOwnership()": {
        "notice": "Renouncing to ownership will leave the contract without an owner. It will not be possible to call the functions with the `onlyOwner` modifier anymore."
      }
    },
    "version": 1
  }
}