{
  "contractName": "pokeHelper",
  "abi": [
    {
      "anonymous": false,
      "inputs": [
        {
          "indexed": false,
          "internalType": "uint256",
          "name": "pokemonId",
          "type": "uint256"
        },
        {
          "indexed": false,
          "internalType": "string",
          "name": "name",
          "type": "string"
        },
        {
          "indexed": false,
          "internalType": "uint256",
          "name": "dna",
          "type": "uint256"
        },
        {
          "indexed": false,
          "internalType": "string",
          "name": "pType",
          "type": "string"
        }
      ],
      "name": "NewPokemon",
      "type": "event"
    },
    {
      "anonymous": false,
      "inputs": [
        {
          "indexed": true,
          "internalType": "address",
          "name": "previousOwner",
          "type": "address"
        },
        {
          "indexed": true,
          "internalType": "address",
          "name": "newOwner",
          "type": "address"
        }
      ],
      "name": "OwnershipTransferred",
      "type": "event"
    },
    {
      "inputs": [
        {
          "internalType": "string",
          "name": "_name",
          "type": "string"
        }
      ],
      "name": "createPokemon",
      "outputs": [],
      "stateMutability": "nonpayable",
      "type": "function"
    },
    {
      "inputs": [
        {
          "internalType": "uint256",
          "name": "dna",
          "type": "uint256"
        }
      ],
      "name": "generateRandomType",
      "outputs": [
        {
          "internalType": "string",
          "name": "",
          "type": "string"
        }
      ],
      "stateMutability": "pure",
      "type": "function",
      "constant": true
    },
    {
      "inputs": [],
      "name": "isOwner",
      "outputs": [
        {
          "internalType": "bool",
          "name": "",
          "type": "bool"
        }
      ],
      "stateMutability": "view",
      "type": "function",
      "constant": true
    },
    {
      "inputs": [],
      "name": "owner",
      "outputs": [
        {
          "internalType": "address",
          "name": "",
          "type": "address"
        }
      ],
      "stateMutability": "view",
      "type": "function",
      "constant": true
    },
    {
      "inputs": [
        {
          "internalType": "address",
          "name": "",
          "type": "address"
        }
      ],
      "name": "ownerPokemonCount",
      "outputs": [
        {
          "internalType": "uint256",
          "name": "",
          "type": "uint256"
        }
      ],
      "stateMutability": "view",
      "type": "function",
      "constant": true
    },
    {
      "inputs": [],
      "name": "pokemonBuyFee",
      "outputs": [
        {
          "internalType": "uint256",
          "name": "",
          "type": "uint256"
        }
      ],
      "stateMutability": "view",
      "type": "function",
      "constant": true
    },
    {
      "inputs": [
        {
          "internalType": "uint256",
          "name": "",
          "type": "uint256"
        }
      ],
      "name": "pokemonToOwner",
      "outputs": [
        {
          "internalType": "address",
          "name": "",
          "type": "address"
        }
      ],
      "stateMutability": "view",
      "type": "function",
      "constant": true
    },
    {
      "inputs": [
        {
          "internalType": "uint256",
          "name": "",
          "type": "uint256"
        }
      ],
      "name": "pokemons",
      "outputs": [
        {
          "internalType": "string",
          "name": "name",
          "type": "string"
        },
        {
          "internalType": "uint256",
          "name": "dna",
          "type": "uint256"
        },
        {
          "internalType": "string",
          "name": "pType",
          "type": "string"
        },
        {
          "internalType": "uint8",
          "name": "level",
          "type": "uint8"
        },
        {
          "internalType": "uint32",
          "name": "readyTime",
          "type": "uint32"
        },
        {
          "internalType": "uint16",
          "name": "winCount",
          "type": "uint16"
        },
        {
          "internalType": "uint16",
          "name": "lossCount",
          "type": "uint16"
        }
      ],
      "stateMutability": "view",
      "type": "function",
      "constant": true
    },
    {
      "inputs": [],
      "name": "renounceOwnership",
      "outputs": [],
      "stateMutability": "nonpayable",
      "type": "function"
    },
    {
      "inputs": [
        {
          "internalType": "address",
          "name": "newOwner",
          "type": "address"
        }
      ],
      "name": "transferOwnership",
      "outputs": [],
      "stateMutability": "nonpayable",
      "type": "function"
    },
    {
      "inputs": [
        {
          "internalType": "uint256",
          "name": "_fee",
          "type": "uint256"
        }
      ],
      "name": "setBuyFee",
      "outputs": [],
      "stateMutability": "nonpayable",
      "type": "function"
    },
    {
      "inputs": [
        {
          "internalType": "string",
          "name": "_name",
          "type": "string"
        }
      ],
      "name": "buyPokemon",
      "outputs": [],
      "stateMutability": "payable",
      "type": "function",
      "payable": true
    }
  ],
  "bytecode": "0x60806040526201518060015561012c60055534801561001d57600080fd5b50336000806101000a81548173ffffffffffffffffffffffffffffffffffffffff021916908373ffffffffffffffffffffffffffffffffffffffff16021790555060008054906101000a900473ffffffffffffffffffffffffffffffffffffffff1673ffffffffffffffffffffffffffffffffffffffff16600073ffffffffffffffffffffffffffffffffffffffff167f8be0079c531659141344cd1fd0a4f28419497f9722a3daafe3b4186f6b6457e060405160405180910390a36118d9806100e86000396000f3fe6080604052600436106100a75760003560e01c8063858310791161006457806385831079146101ce5780638da5cb5b146102115780638f32d59b1461023c578063d8c2e37b14610267578063e47b79d414610283578063f2fde38b146102ac576100a7565b8063037036d0146100ac5780630cc835a3146100e957806325963cca146101125780632f7467b31461014f57806370e1cdfd1461018c578063715018a6146101b7575b600080fd5b3480156100b857600080fd5b506100d360048036038101906100ce9190610fcd565b6102d5565b6040516100e0919061108a565b60405180910390f35b3480156100f557600080fd5b50610110600480360381019061010b9190610fcd565b6107cd565b005b34801561011e57600080fd5b506101396004803603810190610134919061110a565b6107e8565b6040516101469190611146565b60405180910390f35b34801561015b57600080fd5b5061017660048036038101906101719190610fcd565b610800565b6040516101839190611170565b60405180910390f35b34801561019857600080fd5b506101a1610833565b6040516101ae9190611146565b60405180910390f35b3480156101c357600080fd5b506101cc610839565b005b3480156101da57600080fd5b506101f560048036038101906101f09190610fcd565b610908565b60405161020897969594939291906111e3565b60405180910390f35b34801561021d57600080fd5b50610226610aa3565b6040516102339190611170565b60405180910390f35b34801561024857600080fd5b50610251610acc565b60405161025e919061127b565b60405180910390f35b610281600480360381019061027c91906113cb565b610b23565b005b34801561028f57600080fd5b506102aa60048036038101906102a591906113cb565b610b8b565b005b3480156102b857600080fd5b506102d360048036038101906102ce919061110a565b610bf2565b005b606060006012836102e69190611443565b90506000810361032e576040518060400160405280600681526020017f6e6f726d616c00000000000000000000000000000000000000000000000000008152509150506107c8565b60018103610374576040518060400160405280600481526020017f66697265000000000000000000000000000000000000000000000000000000008152509150506107c8565b600281036103ba576040518060400160405280600581526020017f77617465720000000000000000000000000000000000000000000000000000008152509150506107c8565b60038103610400576040518060400160405280600881526020017f656c6563747269630000000000000000000000000000000000000000000000008152509150506107c8565b60048103610446576040518060400160405280600581526020017f67726173730000000000000000000000000000000000000000000000000000008152509150506107c8565b6005810361048c576040518060400160405280600381526020017f69636500000000000000000000000000000000000000000000000000000000008152509150506107c8565b600681036104d2576040518060400160405280600881526020017f6669676874696e670000000000000000000000000000000000000000000000008152509150506107c8565b60078103610518576040518060400160405280600681526020017f706f69736f6e00000000000000000000000000000000000000000000000000008152509150506107c8565b6008810361055e576040518060400160405280600681526020017f67726f756e6400000000000000000000000000000000000000000000000000008152509150506107c8565b600981036105a4576040518060400160405280600681526020017f666c79696e6700000000000000000000000000000000000000000000000000008152509150506107c8565b600a81036105ea576040518060400160405280600781526020017f70737963686963000000000000000000000000000000000000000000000000008152509150506107c8565b600b8103610630576040518060400160405280600381526020017f62756700000000000000000000000000000000000000000000000000000000008152509150506107c8565b600c8103610676576040518060400160405280600481526020017f726f636b000000000000000000000000000000000000000000000000000000008152509150506107c8565b600d81036106bc576040518060400160405280600581526020017f67686f73740000000000000000000000000000000000000000000000000000008152509150506107c8565b600e8103610702576040518060400160405280600681526020017f647261676f6e00000000000000000000000000000000000000000000000000008152509150506107c8565b600f8103610748576040518060400160405280600481526020017f6461726b000000000000000000000000000000000000000000000000000000008152509150506107c8565b6010810361078e576040518060400160405280600581526020017f737465656c0000000000000000000000000000000000000000000000000000008152509150506107c8565b6040518060400160405280600581526020017f66616972790000000000000000000000000000000000000000000000000000008152509150505b919050565b6107d5610acc565b6107de57600080fd5b8060058190555050565b60046020528060005260406000206000915090505481565b60036020528060005260406000206000915054906101000a900473ffffffffffffffffffffffffffffffffffffffff1681565b60055481565b610841610acc565b61084a57600080fd5b600073ffffffffffffffffffffffffffffffffffffffff1660008054906101000a900473ffffffffffffffffffffffffffffffffffffffff1673ffffffffffffffffffffffffffffffffffffffff167f8be0079c531659141344cd1fd0a4f28419497f9722a3daafe3b4186f6b6457e060405160405180910390a360008060006101000a81548173ffffffffffffffffffffffffffffffffffffffff021916908373ffffffffffffffffffffffffffffffffffffffff160217905550565b6002818154811061091857600080fd5b906000526020600020906004020160009150905080600001805461093b906114a3565b80601f0160208091040260200160405190810160405280929190818152602001828054610967906114a3565b80156109b45780601f10610989576101008083540402835291602001916109b4565b820191906000526020600020905b81548152906001019060200180831161099757829003601f168201915b5050505050908060010154908060020180546109cf906114a3565b80601f01602080910402602001604051908101604052809291908181526020018280546109fb906114a3565b8015610a485780601f10610a1d57610100808354040283529160200191610a48565b820191906000526020600020905b815481529060010190602001808311610a2b57829003601f168201915b5050505050908060030160009054906101000a900460ff16908060030160019054906101000a900463ffffffff16908060030160059054906101000a900461ffff16908060030160079054906101000a900461ffff16905087565b60008060009054906101000a900473ffffffffffffffffffffffffffffffffffffffff16905090565b60008060009054906101000a900473ffffffffffffffffffffffffffffffffffffffff1673ffffffffffffffffffffffffffffffffffffffff163373ffffffffffffffffffffffffffffffffffffffff1614905090565b6005543414610b3157600080fd5b610b39610aa3565b73ffffffffffffffffffffffffffffffffffffffff166108fc349081150290604051600060405180830381858888f19350505050158015610b7e573d6000803e3d6000fd5b50610b8881610b8b565b50565b6000600460003373ffffffffffffffffffffffffffffffffffffffff1673ffffffffffffffffffffffffffffffffffffffff1681526020019081526020016000205414610bd757600080fd5b6000610be282610c0f565b9050610bee8282610c47565b5050565b610bfa610acc565b610c0357600080fd5b610c0c81610e8d565b50565b60008082604051602001610c239190611510565b6040516020818303038152906040528051906020012060001c905080915050919050565b6000610c52826102d5565b905060026040518060e00160405280858152602001848152602001838152602001600160ff16815260200160015442610c8b9190611556565b63ffffffff168152602001600061ffff168152602001600061ffff1681525090806001815401808255809150506001900390600052602060002090600402016000909190919091506000820151816000019081610ce89190611736565b50602082015181600101556040820151816002019081610d089190611736565b5060608201518160030160006101000a81548160ff021916908360ff16021790555060808201518160030160016101000a81548163ffffffff021916908363ffffffff16021790555060a08201518160030160056101000a81548161ffff021916908361ffff16021790555060c08201518160030160076101000a81548161ffff021916908361ffff160217905550505060006002805490509050336003600083815260200190815260200160002060006101000a81548173ffffffffffffffffffffffffffffffffffffffff021916908373ffffffffffffffffffffffffffffffffffffffff160217905550600460003373ffffffffffffffffffffffffffffffffffffffff1673ffffffffffffffffffffffffffffffffffffffff1681526020019081526020016000206000815480929190610e4590611808565b91905055507f28edc1b769f6dd69d6f4439dbc820c85cc48492a1855ece80e8759184207b71d81858585604051610e7f9493929190611850565b60405180910390a150505050565b600073ffffffffffffffffffffffffffffffffffffffff168173ffffffffffffffffffffffffffffffffffffffff1603610ec657600080fd5b8073ffffffffffffffffffffffffffffffffffffffff1660008054906101000a900473ffffffffffffffffffffffffffffffffffffffff1673ffffffffffffffffffffffffffffffffffffffff167f8be0079c531659141344cd1fd0a4f28419497f9722a3daafe3b4186f6b6457e060405160405180910390a3806000806101000a81548173ffffffffffffffffffffffffffffffffffffffff021916908373ffffffffffffffffffffffffffffffffffffffff16021790555050565b6000604051905090565b600080fd5b600080fd5b6000819050919050565b610faa81610f97565b8114610fb557600080fd5b50565b600081359050610fc781610fa1565b92915050565b600060208284031215610fe357610fe2610f8d565b5b6000610ff184828501610fb8565b91505092915050565b600081519050919050565b600082825260208201905092915050565b60005b83811015611034578082015181840152602081019050611019565b60008484015250505050565b6000601f19601f8301169050919050565b600061105c82610ffa565b6110668185611005565b9350611076818560208601611016565b61107f81611040565b840191505092915050565b600060208201905081810360008301526110a48184611051565b905092915050565b600073ffffffffffffffffffffffffffffffffffffffff82169050919050565b60006110d7826110ac565b9050919050565b6110e7816110cc565b81146110f257600080fd5b50565b600081359050611104816110de565b92915050565b6000602082840312156111205761111f610f8d565b5b600061112e848285016110f5565b91505092915050565b61114081610f97565b82525050565b600060208201905061115b6000830184611137565b92915050565b61116a816110cc565b82525050565b60006020820190506111856000830184611161565b92915050565b600060ff82169050919050565b6111a18161118b565b82525050565b600063ffffffff82169050919050565b6111c0816111a7565b82525050565b600061ffff82169050919050565b6111dd816111c6565b82525050565b600060e08201905081810360008301526111fd818a611051565b905061120c6020830189611137565b818103604083015261121e8188611051565b905061122d6060830187611198565b61123a60808301866111b7565b61124760a08301856111d4565b61125460c08301846111d4565b98975050505050505050565b60008115159050919050565b61127581611260565b82525050565b6000602082019050611290600083018461126c565b92915050565b600080fd5b600080fd5b7f4e487b7100000000000000000000000000000000000000000000000000000000600052604160045260246000fd5b6112d882611040565b810181811067ffffffffffffffff821117156112f7576112f66112a0565b5b80604052505050565b600061130a610f83565b905061131682826112cf565b919050565b600067ffffffffffffffff821115611336576113356112a0565b5b61133f82611040565b9050602081019050919050565b82818337600083830152505050565b600061136e6113698461131b565b611300565b90508281526020810184848401111561138a5761138961129b565b5b61139584828561134c565b509392505050565b600082601f8301126113b2576113b1611296565b5b81356113c284826020860161135b565b91505092915050565b6000602082840312156113e1576113e0610f8d565b5b600082013567ffffffffffffffff8111156113ff576113fe610f92565b5b61140b8482850161139d565b91505092915050565b7f4e487b7100000000000000000000000000000000000000000000000000000000600052601260045260246000fd5b600061144e82610f97565b915061145983610f97565b92508261146957611468611414565b5b828206905092915050565b7f4e487b7100000000000000000000000000000000000000000000000000000000600052602260045260246000fd5b600060028204905060018216806114bb57607f821691505b6020821081036114ce576114cd611474565b5b50919050565b600081905092915050565b60006114ea82610ffa565b6114f481856114d4565b9350611504818560208601611016565b80840191505092915050565b600061151c82846114df565b915081905092915050565b7f4e487b7100000000000000000000000000000000000000000000000000000000600052601160045260246000fd5b600061156182610f97565b915061156c83610f97565b925082820190508082111561158457611583611527565b5b92915050565b60008190508160005260206000209050919050565b60006020601f8301049050919050565b600082821b905092915050565b6000600883026115ec7fffffffffffffffffffffffffffffffffffffffffffffffffffffffffffffffff826115af565b6115f686836115af565b95508019841693508086168417925050509392505050565b6000819050919050565b600061163361162e61162984610f97565b61160e565b610f97565b9050919050565b6000819050919050565b61164d83611618565b6116616116598261163a565b8484546115bc565b825550505050565b600090565b611676611669565b611681818484611644565b505050565b5b818110156116a55761169a60008261166e565b600181019050611687565b5050565b601f8211156116ea576116bb8161158a565b6116c48461159f565b810160208510156116d3578190505b6116e76116df8561159f565b830182611686565b50505b505050565b600082821c905092915050565b600061170d600019846008026116ef565b1980831691505092915050565b600061172683836116fc565b9150826002028217905092915050565b61173f82610ffa565b67ffffffffffffffff811115611758576117576112a0565b5b61176282546114a3565b61176d8282856116a9565b600060209050601f8311600181146117a0576000841561178e578287015190505b611798858261171a565b865550611800565b601f1984166117ae8661158a565b60005b828110156117d6578489015182556001820191506020850194506020810190506117b1565b868310156117f357848901516117ef601f8916826116fc565b8355505b6001600288020188555050505b505050505050565b600061181382610f97565b91507fffffffffffffffffffffffffffffffffffffffffffffffffffffffffffffffff820361184557611844611527565b5b600182019050919050565b60006080820190506118656000830187611137565b81810360208301526118778186611051565b90506118866040830185611137565b81810360608301526118988184611051565b90509594505050505056fea264697066735822122015a797e601a6cd8c6ef15ab97676a9251f70566c703aca3c3bf258d8e99d366064736f6c63430008110033",
  "immutableReferences": {},
  "source": "// SPDX-License-Identifier: MIT\r\npragma solidity ^0.8.0;\r\n\r\nimport './pokeToken.sol';\r\n\r\n\r\ncontract pokeHelper is PokeToken{\r\n\r\n    uint public pokemonBuyFee = 300;\r\n\r\n    modifier ownerOf(uint _pokemonId) {\r\n        require(msg.sender == pokemonToOwner[_pokemonId]);\r\n        _;\r\n    }\r\n\r\n    function setBuyFee(uint _fee) external onlyOwner {\r\n        pokemonBuyFee = _fee;\r\n    }\r\n\r\n    function buyPokemon(string memory _name) external payable {\r\n        require(msg.value == pokemonBuyFee);\r\n        payable(owner()).transfer(msg.value);\r\n        createPokemon(_name);\r\n    }\r\n}",
  "sourcePath": "C:\\Users\\vande\\Schooljaar_2023_2024_Semester 1\\erasmus\\PokeBattle\\contracts\\pokeHelper.sol",
  "compiler": {
    "name": "solc",
    "version": "0.8.17+commit.8df45f5f.Emscripten.clang"
  },
  "schemaVersion": "3.4.16",
  "updatedAt": "2024-06-06T15:23:58.540Z",
  "networkType": "ethereum",
  "devdoc": {
    "kind": "dev",
    "methods": {
      "isOwner()": {
        "returns": {
          "_0": "true if `msg.sender` is the owner of the contract."
        }
      },
      "owner()": {
        "returns": {
          "_0": "the address of the owner."
        }
      },
      "renounceOwnership()": {
        "details": "Allows the current owner to relinquish control of the contract."
      },
      "transferOwnership(address)": {
        "details": "Allows the current owner to transfer control of the contract to a newOwner.",
        "params": {
          "newOwner": "The address to transfer ownership to."
        }
      }
    },
    "version": 1
  },
  "userdoc": {
    "kind": "user",
    "methods": {
      "renounceOwnership()": {
        "notice": "Renouncing to ownership will leave the contract without an owner. It will not be possible to call the functions with the `onlyOwner` modifier anymore."
      }
    },
    "version": 1
  }
}