{
  "contractName": "PokeToken",
  "abi": [
    {
      "anonymous": false,
      "inputs": [
        {
          "indexed": false,
          "internalType": "uint256",
          "name": "pokemonId",
          "type": "uint256"
        },
        {
          "indexed": false,
          "internalType": "string",
          "name": "name",
          "type": "string"
        },
        {
          "indexed": false,
          "internalType": "uint256",
          "name": "dna",
          "type": "uint256"
        },
        {
          "indexed": false,
          "internalType": "string",
          "name": "pType",
          "type": "string"
        }
      ],
      "name": "NewPokemon",
      "type": "event"
    },
    {
      "anonymous": false,
      "inputs": [
        {
          "indexed": true,
          "internalType": "address",
          "name": "previousOwner",
          "type": "address"
        },
        {
          "indexed": true,
          "internalType": "address",
          "name": "newOwner",
          "type": "address"
        }
      ],
      "name": "OwnershipTransferred",
      "type": "event"
    },
    {
      "inputs": [
        {
          "internalType": "uint256",
          "name": "dna",
          "type": "uint256"
        }
      ],
      "name": "generateRandomType",
      "outputs": [
        {
          "internalType": "string",
          "name": "",
          "type": "string"
        }
      ],
      "stateMutability": "pure",
      "type": "function",
      "constant": true
    },
    {
      "inputs": [],
      "name": "isOwner",
      "outputs": [
        {
          "internalType": "bool",
          "name": "",
          "type": "bool"
        }
      ],
      "stateMutability": "view",
      "type": "function",
      "constant": true
    },
    {
      "inputs": [],
      "name": "owner",
      "outputs": [
        {
          "internalType": "address",
          "name": "",
          "type": "address"
        }
      ],
      "stateMutability": "view",
      "type": "function",
      "constant": true
    },
    {
      "inputs": [
        {
          "internalType": "address",
          "name": "",
          "type": "address"
        }
      ],
      "name": "ownerPokemonCount",
      "outputs": [
        {
          "internalType": "uint256",
          "name": "",
          "type": "uint256"
        }
      ],
      "stateMutability": "view",
      "type": "function",
      "constant": true
    },
    {
      "inputs": [
        {
          "internalType": "uint256",
          "name": "",
          "type": "uint256"
        }
      ],
      "name": "pokemonToOwner",
      "outputs": [
        {
          "internalType": "address",
          "name": "",
          "type": "address"
        }
      ],
      "stateMutability": "view",
      "type": "function",
      "constant": true
    },
    {
      "inputs": [
        {
          "internalType": "uint256",
          "name": "",
          "type": "uint256"
        }
      ],
      "name": "pokemons",
      "outputs": [
        {
          "internalType": "string",
          "name": "name",
          "type": "string"
        },
        {
          "internalType": "uint256",
          "name": "dna",
          "type": "uint256"
        },
        {
          "internalType": "string",
          "name": "pType",
          "type": "string"
        },
        {
          "internalType": "uint8",
          "name": "level",
          "type": "uint8"
        },
        {
          "internalType": "uint32",
          "name": "readyTime",
          "type": "uint32"
        },
        {
          "internalType": "uint16",
          "name": "winCount",
          "type": "uint16"
        },
        {
          "internalType": "uint16",
          "name": "lossCount",
          "type": "uint16"
        }
      ],
      "stateMutability": "view",
      "type": "function",
      "constant": true
    },
    {
      "inputs": [],
      "name": "renounceOwnership",
      "outputs": [],
      "stateMutability": "nonpayable",
      "type": "function"
    },
    {
      "inputs": [
        {
          "internalType": "address",
          "name": "newOwner",
          "type": "address"
        }
      ],
      "name": "transferOwnership",
      "outputs": [],
      "stateMutability": "nonpayable",
      "type": "function"
    },
    {
      "inputs": [
        {
          "internalType": "string",
          "name": "_name",
          "type": "string"
        }
      ],
      "name": "createPokemon",
      "outputs": [],
      "stateMutability": "nonpayable",
      "type": "function"
    }
  ],
  "bytecode": "0x60806040526201518060015534801561001757600080fd5b50336000806101000a81548173ffffffffffffffffffffffffffffffffffffffff021916908373ffffffffffffffffffffffffffffffffffffffff16021790555060008054906101000a900473ffffffffffffffffffffffffffffffffffffffff1673ffffffffffffffffffffffffffffffffffffffff16600073ffffffffffffffffffffffffffffffffffffffff167f8be0079c531659141344cd1fd0a4f28419497f9722a3daafe3b4186f6b6457e060405160405180910390a36117a2806100e26000396000f3fe608060405234801561001057600080fd5b50600436106100935760003560e01c8063858310791161006657806385831079146101325780638da5cb5b146101685780638f32d59b14610186578063e47b79d4146101a4578063f2fde38b146101c057610093565b8063037036d01461009857806325963cca146100c85780632f7467b3146100f8578063715018a614610128575b600080fd5b6100b260048036038101906100ad9190610e96565b6101dc565b6040516100bf9190610f53565b60405180910390f35b6100e260048036038101906100dd9190610fd3565b6106d4565b6040516100ef919061100f565b60405180910390f35b610112600480360381019061010d9190610e96565b6106ec565b60405161011f9190611039565b60405180910390f35b61013061071f565b005b61014c60048036038101906101479190610e96565b6107ee565b60405161015f97969594939291906110ac565b60405180910390f35b610170610989565b60405161017d9190611039565b60405180910390f35b61018e6109b2565b60405161019b9190611144565b60405180910390f35b6101be60048036038101906101b99190611294565b610a09565b005b6101da60048036038101906101d59190610fd3565b610abb565b005b606060006012836101ed919061130c565b905060008103610235576040518060400160405280600681526020017f6e6f726d616c00000000000000000000000000000000000000000000000000008152509150506106cf565b6001810361027b576040518060400160405280600481526020017f66697265000000000000000000000000000000000000000000000000000000008152509150506106cf565b600281036102c1576040518060400160405280600581526020017f77617465720000000000000000000000000000000000000000000000000000008152509150506106cf565b60038103610307576040518060400160405280600881526020017f656c6563747269630000000000000000000000000000000000000000000000008152509150506106cf565b6004810361034d576040518060400160405280600581526020017f67726173730000000000000000000000000000000000000000000000000000008152509150506106cf565b60058103610393576040518060400160405280600381526020017f69636500000000000000000000000000000000000000000000000000000000008152509150506106cf565b600681036103d9576040518060400160405280600881526020017f6669676874696e670000000000000000000000000000000000000000000000008152509150506106cf565b6007810361041f576040518060400160405280600681526020017f706f69736f6e00000000000000000000000000000000000000000000000000008152509150506106cf565b60088103610465576040518060400160405280600681526020017f67726f756e6400000000000000000000000000000000000000000000000000008152509150506106cf565b600981036104ab576040518060400160405280600681526020017f666c79696e6700000000000000000000000000000000000000000000000000008152509150506106cf565b600a81036104f1576040518060400160405280600781526020017f70737963686963000000000000000000000000000000000000000000000000008152509150506106cf565b600b8103610537576040518060400160405280600381526020017f62756700000000000000000000000000000000000000000000000000000000008152509150506106cf565b600c810361057d576040518060400160405280600481526020017f726f636b000000000000000000000000000000000000000000000000000000008152509150506106cf565b600d81036105c3576040518060400160405280600581526020017f67686f73740000000000000000000000000000000000000000000000000000008152509150506106cf565b600e8103610609576040518060400160405280600681526020017f647261676f6e00000000000000000000000000000000000000000000000000008152509150506106cf565b600f810361064f576040518060400160405280600481526020017f6461726b000000000000000000000000000000000000000000000000000000008152509150506106cf565b60108103610695576040518060400160405280600581526020017f737465656c0000000000000000000000000000000000000000000000000000008152509150506106cf565b6040518060400160405280600581526020017f66616972790000000000000000000000000000000000000000000000000000008152509150505b919050565b60046020528060005260406000206000915090505481565b60036020528060005260406000206000915054906101000a900473ffffffffffffffffffffffffffffffffffffffff1681565b6107276109b2565b61073057600080fd5b600073ffffffffffffffffffffffffffffffffffffffff1660008054906101000a900473ffffffffffffffffffffffffffffffffffffffff1673ffffffffffffffffffffffffffffffffffffffff167f8be0079c531659141344cd1fd0a4f28419497f9722a3daafe3b4186f6b6457e060405160405180910390a360008060006101000a81548173ffffffffffffffffffffffffffffffffffffffff021916908373ffffffffffffffffffffffffffffffffffffffff160217905550565b600281815481106107fe57600080fd5b90600052602060002090600402016000915090508060000180546108219061136c565b80601f016020809104026020016040519081016040528092919081815260200182805461084d9061136c565b801561089a5780601f1061086f5761010080835404028352916020019161089a565b820191906000526020600020905b81548152906001019060200180831161087d57829003601f168201915b5050505050908060010154908060020180546108b59061136c565b80601f01602080910402602001604051908101604052809291908181526020018280546108e19061136c565b801561092e5780601f106109035761010080835404028352916020019161092e565b820191906000526020600020905b81548152906001019060200180831161091157829003601f168201915b5050505050908060030160009054906101000a900460ff16908060030160019054906101000a900463ffffffff16908060030160059054906101000a900461ffff16908060030160079054906101000a900461ffff16905087565b60008060009054906101000a900473ffffffffffffffffffffffffffffffffffffffff16905090565b60008060009054906101000a900473ffffffffffffffffffffffffffffffffffffffff1673ffffffffffffffffffffffffffffffffffffffff163373ffffffffffffffffffffffffffffffffffffffff1614905090565b6040518060400160405280600f81526020017f5374617274657220506f6b656d6f6e000000000000000000000000000000000081525080519060200120818051906020012003610aa0576000600460003373ffffffffffffffffffffffffffffffffffffffff1673ffffffffffffffffffffffffffffffffffffffff1681526020019081526020016000205414610a9f57600080fd5b5b6000610aab82610ad8565b9050610ab78282610b10565b5050565b610ac36109b2565b610acc57600080fd5b610ad581610d56565b50565b60008082604051602001610aec91906113d9565b6040516020818303038152906040528051906020012060001c905080915050919050565b6000610b1b826101dc565b905060026040518060e00160405280858152602001848152602001838152602001600160ff16815260200160015442610b54919061141f565b63ffffffff168152602001600061ffff168152602001600061ffff1681525090806001815401808255809150506001900390600052602060002090600402016000909190919091506000820151816000019081610bb191906115ff565b50602082015181600101556040820151816002019081610bd191906115ff565b5060608201518160030160006101000a81548160ff021916908360ff16021790555060808201518160030160016101000a81548163ffffffff021916908363ffffffff16021790555060a08201518160030160056101000a81548161ffff021916908361ffff16021790555060c08201518160030160076101000a81548161ffff021916908361ffff160217905550505060006002805490509050336003600083815260200190815260200160002060006101000a81548173ffffffffffffffffffffffffffffffffffffffff021916908373ffffffffffffffffffffffffffffffffffffffff160217905550600460003373ffffffffffffffffffffffffffffffffffffffff1673ffffffffffffffffffffffffffffffffffffffff1681526020019081526020016000206000815480929190610d0e906116d1565b91905055507f28edc1b769f6dd69d6f4439dbc820c85cc48492a1855ece80e8759184207b71d81858585604051610d489493929190611719565b60405180910390a150505050565b600073ffffffffffffffffffffffffffffffffffffffff168173ffffffffffffffffffffffffffffffffffffffff1603610d8f57600080fd5b8073ffffffffffffffffffffffffffffffffffffffff1660008054906101000a900473ffffffffffffffffffffffffffffffffffffffff1673ffffffffffffffffffffffffffffffffffffffff167f8be0079c531659141344cd1fd0a4f28419497f9722a3daafe3b4186f6b6457e060405160405180910390a3806000806101000a81548173ffffffffffffffffffffffffffffffffffffffff021916908373ffffffffffffffffffffffffffffffffffffffff16021790555050565b6000604051905090565b600080fd5b600080fd5b6000819050919050565b610e7381610e60565b8114610e7e57600080fd5b50565b600081359050610e9081610e6a565b92915050565b600060208284031215610eac57610eab610e56565b5b6000610eba84828501610e81565b91505092915050565b600081519050919050565b600082825260208201905092915050565b60005b83811015610efd578082015181840152602081019050610ee2565b60008484015250505050565b6000601f19601f8301169050919050565b6000610f2582610ec3565b610f2f8185610ece565b9350610f3f818560208601610edf565b610f4881610f09565b840191505092915050565b60006020820190508181036000830152610f6d8184610f1a565b905092915050565b600073ffffffffffffffffffffffffffffffffffffffff82169050919050565b6000610fa082610f75565b9050919050565b610fb081610f95565b8114610fbb57600080fd5b50565b600081359050610fcd81610fa7565b92915050565b600060208284031215610fe957610fe8610e56565b5b6000610ff784828501610fbe565b91505092915050565b61100981610e60565b82525050565b60006020820190506110246000830184611000565b92915050565b61103381610f95565b82525050565b600060208201905061104e600083018461102a565b92915050565b600060ff82169050919050565b61106a81611054565b82525050565b600063ffffffff82169050919050565b61108981611070565b82525050565b600061ffff82169050919050565b6110a68161108f565b82525050565b600060e08201905081810360008301526110c6818a610f1a565b90506110d56020830189611000565b81810360408301526110e78188610f1a565b90506110f66060830187611061565b6111036080830186611080565b61111060a083018561109d565b61111d60c083018461109d565b98975050505050505050565b60008115159050919050565b61113e81611129565b82525050565b60006020820190506111596000830184611135565b92915050565b600080fd5b600080fd5b7f4e487b7100000000000000000000000000000000000000000000000000000000600052604160045260246000fd5b6111a182610f09565b810181811067ffffffffffffffff821117156111c0576111bf611169565b5b80604052505050565b60006111d3610e4c565b90506111df8282611198565b919050565b600067ffffffffffffffff8211156111ff576111fe611169565b5b61120882610f09565b9050602081019050919050565b82818337600083830152505050565b6000611237611232846111e4565b6111c9565b90508281526020810184848401111561125357611252611164565b5b61125e848285611215565b509392505050565b600082601f83011261127b5761127a61115f565b5b813561128b848260208601611224565b91505092915050565b6000602082840312156112aa576112a9610e56565b5b600082013567ffffffffffffffff8111156112c8576112c7610e5b565b5b6112d484828501611266565b91505092915050565b7f4e487b7100000000000000000000000000000000000000000000000000000000600052601260045260246000fd5b600061131782610e60565b915061132283610e60565b925082611332576113316112dd565b5b828206905092915050565b7f4e487b7100000000000000000000000000000000000000000000000000000000600052602260045260246000fd5b6000600282049050600182168061138457607f821691505b6020821081036113975761139661133d565b5b50919050565b600081905092915050565b60006113b382610ec3565b6113bd818561139d565b93506113cd818560208601610edf565b80840191505092915050565b60006113e582846113a8565b915081905092915050565b7f4e487b7100000000000000000000000000000000000000000000000000000000600052601160045260246000fd5b600061142a82610e60565b915061143583610e60565b925082820190508082111561144d5761144c6113f0565b5b92915050565b60008190508160005260206000209050919050565b60006020601f8301049050919050565b600082821b905092915050565b6000600883026114b57fffffffffffffffffffffffffffffffffffffffffffffffffffffffffffffffff82611478565b6114bf8683611478565b95508019841693508086168417925050509392505050565b6000819050919050565b60006114fc6114f76114f284610e60565b6114d7565b610e60565b9050919050565b6000819050919050565b611516836114e1565b61152a61152282611503565b848454611485565b825550505050565b600090565b61153f611532565b61154a81848461150d565b505050565b5b8181101561156e57611563600082611537565b600181019050611550565b5050565b601f8211156115b35761158481611453565b61158d84611468565b8101602085101561159c578190505b6115b06115a885611468565b83018261154f565b50505b505050565b600082821c905092915050565b60006115d6600019846008026115b8565b1980831691505092915050565b60006115ef83836115c5565b9150826002028217905092915050565b61160882610ec3565b67ffffffffffffffff81111561162157611620611169565b5b61162b825461136c565b611636828285611572565b600060209050601f8311600181146116695760008415611657578287015190505b61166185826115e3565b8655506116c9565b601f19841661167786611453565b60005b8281101561169f5784890151825560018201915060208501945060208101905061167a565b868310156116bc57848901516116b8601f8916826115c5565b8355505b6001600288020188555050505b505050505050565b60006116dc82610e60565b91507fffffffffffffffffffffffffffffffffffffffffffffffffffffffffffffffff820361170e5761170d6113f0565b5b600182019050919050565b600060808201905061172e6000830187611000565b81810360208301526117408186610f1a565b905061174f6040830185611000565b81810360608301526117618184610f1a565b90509594505050505056fea264697066735822122071191369a38711cce0c3f3e20b826566e7aeb6665daf20cfe47392f028f70dca64736f6c63430008110033",
  "immutableReferences": {},
  "source": "// SPDX-License-Identifier: MIT\r\npragma solidity ^0.8.0;\r\n\r\nimport \"./ownable.sol\";\r\nimport \"./randomTypeGenerator.sol\";\r\n\r\ncontract PokeToken is Ownable, RandomTypeGenerator {\r\n\r\n    event NewPokemon(uint pokemonId, string name, uint dna, string pType);\r\n    uint cooldownTime = 1 days;\r\n    \r\n    struct Pokemon {\r\n        string name;\r\n        uint dna;\r\n        string pType;\r\n        uint8 level;\r\n        uint32 readyTime;\r\n        uint16 winCount;\r\n        uint16 lossCount;\r\n    }\r\n\r\n    Pokemon[] public pokemons;\r\n\r\n    mapping (uint => address) public pokemonToOwner;\r\n    mapping (address => uint) public ownerPokemonCount;\r\n\r\n    //used to generate DNA but also to generates the pokemon type\r\n    function _generateRandomDna(string memory _str) private pure returns (uint) {\r\n        uint rand = uint(keccak256(abi.encodePacked(_str)));\r\n        return rand;\r\n    }\r\n    function _createPokemon(string memory _name, uint _dna) internal {\r\n        string memory pType = generateRandomType(_dna);\r\n        pokemons.push(Pokemon(_name, _dna, pType, 1, uint32(block.timestamp + cooldownTime), 0, 0));\r\n        uint id = pokemons.length;\r\n        pokemonToOwner[id] = msg.sender;\r\n        ownerPokemonCount[msg.sender]++;\r\n        emit NewPokemon(id, _name, _dna, pType);\r\n    }\r\n\r\n    function createPokemon(string memory _name) public {\r\n        if(keccak256(bytes(_name)) == keccak256(bytes(\"Starter Pokemon\"))){\r\n            require(ownerPokemonCount[msg.sender] == 0);\r\n        }\r\n        uint randDna = _generateRandomDna(_name);\r\n        _createPokemon(_name, randDna);\r\n    }\r\n}\r\n",
  "sourcePath": "C:\\Users\\vande\\Schooljaar_2023_2024_Semester 1\\erasmus\\PokeBattle2\\PokeCoin\\contracts\\pokeToken.sol",
  "compiler": {
    "name": "solc",
    "version": "0.8.17+commit.8df45f5f.Emscripten.clang"
  },
  "schemaVersion": "3.4.16",
  "updatedAt": "2024-06-07T12:32:23.986Z",
  "networkType": "ethereum",
  "devdoc": {
    "kind": "dev",
    "methods": {
      "isOwner()": {
        "returns": {
          "_0": "true if `msg.sender` is the owner of the contract."
        }
      },
      "owner()": {
        "returns": {
          "_0": "the address of the owner."
        }
      },
      "renounceOwnership()": {
        "details": "Allows the current owner to relinquish control of the contract."
      },
      "transferOwnership(address)": {
        "details": "Allows the current owner to transfer control of the contract to a newOwner.",
        "params": {
          "newOwner": "The address to transfer ownership to."
        }
      }
    },
    "version": 1
  },
  "userdoc": {
    "kind": "user",
    "methods": {
      "renounceOwnership()": {
        "notice": "Renouncing to ownership will leave the contract without an owner. It will not be possible to call the functions with the `onlyOwner` modifier anymore."
      }
    },
    "version": 1
  }
}