{
  "contractName": "RandomTypeGenerator",
  "abi": [
    {
      "inputs": [
        {
          "internalType": "uint256",
          "name": "dna",
          "type": "uint256"
        }
      ],
      "name": "generateRandomType",
      "outputs": [
        {
          "internalType": "string",
          "name": "",
          "type": "string"
        }
      ],
      "stateMutability": "pure",
      "type": "function",
      "constant": true
    }
  ],
  "bytecode": "0x608060405234801561001057600080fd5b50610708806100206000396000f3fe608060405234801561001057600080fd5b506004361061002b5760003560e01c8063037036d014610030575b600080fd5b61004a60048036038101906100459190610593565b610060565b6040516100579190610650565b60405180910390f35b6060600060128361007191906106a1565b9050600081036100b9576040518060400160405280600681526020017f6e6f726d616c0000000000000000000000000000000000000000000000000000815250915050610553565b600181036100ff576040518060400160405280600481526020017f6669726500000000000000000000000000000000000000000000000000000000815250915050610553565b60028103610145576040518060400160405280600581526020017f7761746572000000000000000000000000000000000000000000000000000000815250915050610553565b6003810361018b576040518060400160405280600881526020017f656c656374726963000000000000000000000000000000000000000000000000815250915050610553565b600481036101d1576040518060400160405280600581526020017f6772617373000000000000000000000000000000000000000000000000000000815250915050610553565b60058103610217576040518060400160405280600381526020017f6963650000000000000000000000000000000000000000000000000000000000815250915050610553565b6006810361025d576040518060400160405280600881526020017f6669676874696e67000000000000000000000000000000000000000000000000815250915050610553565b600781036102a3576040518060400160405280600681526020017f706f69736f6e0000000000000000000000000000000000000000000000000000815250915050610553565b600881036102e9576040518060400160405280600681526020017f67726f756e640000000000000000000000000000000000000000000000000000815250915050610553565b6009810361032f576040518060400160405280600681526020017f666c79696e670000000000000000000000000000000000000000000000000000815250915050610553565b600a8103610375576040518060400160405280600781526020017f7073796368696300000000000000000000000000000000000000000000000000815250915050610553565b600b81036103bb576040518060400160405280600381526020017f6275670000000000000000000000000000000000000000000000000000000000815250915050610553565b600c8103610401576040518060400160405280600481526020017f726f636b00000000000000000000000000000000000000000000000000000000815250915050610553565b600d8103610447576040518060400160405280600581526020017f67686f7374000000000000000000000000000000000000000000000000000000815250915050610553565b600e810361048d576040518060400160405280600681526020017f647261676f6e0000000000000000000000000000000000000000000000000000815250915050610553565b600f81036104d3576040518060400160405280600481526020017f6461726b00000000000000000000000000000000000000000000000000000000815250915050610553565b60108103610519576040518060400160405280600581526020017f737465656c000000000000000000000000000000000000000000000000000000815250915050610553565b6040518060400160405280600581526020017f66616972790000000000000000000000000000000000000000000000000000008152509150505b919050565b600080fd5b6000819050919050565b6105708161055d565b811461057b57600080fd5b50565b60008135905061058d81610567565b92915050565b6000602082840312156105a9576105a8610558565b5b60006105b78482850161057e565b91505092915050565b600081519050919050565b600082825260208201905092915050565b60005b838110156105fa5780820151818401526020810190506105df565b60008484015250505050565b6000601f19601f8301169050919050565b6000610622826105c0565b61062c81856105cb565b935061063c8185602086016105dc565b61064581610606565b840191505092915050565b6000602082019050818103600083015261066a8184610617565b905092915050565b7f4e487b7100000000000000000000000000000000000000000000000000000000600052601260045260246000fd5b60006106ac8261055d565b91506106b78361055d565b9250826106c7576106c6610672565b5b82820690509291505056fea2646970667358221220c260255352d8eae90916dcd805ad51979aea3d470abc7b65d5007478127edea364736f6c63430008110033",
  "immutableReferences": {},
  "source": "// SPDX-License-Identifier: MIT\r\npragma solidity ^0.8.0;\r\n\r\ncontract RandomTypeGenerator {\r\n    function generateRandomType(uint dna) public pure returns (string memory) {\r\n        uint typeIndex = dna % 18; \r\n        if (typeIndex == 0) {\r\n            return \"normal\";\r\n        } else if (typeIndex == 1) {\r\n            return \"fire\";\r\n        } else if (typeIndex == 2) {\r\n            return \"water\";\r\n        } else if (typeIndex == 3) {\r\n            return \"electric\";\r\n        } else if (typeIndex == 4) {\r\n            return \"grass\";\r\n        } else if (typeIndex == 5) {\r\n            return \"ice\";\r\n        } else if (typeIndex == 6) {\r\n            return \"fighting\";\r\n        } else if (typeIndex == 7) {\r\n            return \"poison\";\r\n        } else if (typeIndex == 8) {\r\n            return \"ground\";\r\n        } else if (typeIndex == 9) {\r\n            return \"flying\";\r\n        } else if (typeIndex == 10) {\r\n            return \"psychic\";\r\n        } else if (typeIndex == 11) {\r\n            return \"bug\";\r\n        } else if (typeIndex == 12) {\r\n            return \"rock\";\r\n        } else if (typeIndex == 13) {\r\n            return \"ghost\";\r\n        } else if (typeIndex == 14) {\r\n            return \"dragon\";\r\n        } else if (typeIndex == 15) {\r\n            return \"dark\";\r\n        } else if (typeIndex == 16) {\r\n            return \"steel\";\r\n        } else {\r\n            return \"fairy\";\r\n        }\r\n    }\r\n}\r\n",
  "sourcePath": "C:\\Users\\vande\\Schooljaar_2023_2024_Semester 1\\erasmus\\PokeBattle2\\PokeCoin\\contracts\\randomTypeGenerator.sol",
  "compiler": {
    "name": "solc",
    "version": "0.8.17+commit.8df45f5f.Emscripten.clang"
  },
  "schemaVersion": "3.4.16",
  "updatedAt": "2024-06-07T12:32:23.970Z",
  "networkType": "ethereum",
  "devdoc": {
    "kind": "dev",
    "methods": {},
    "version": 1
  },
  "userdoc": {
    "kind": "user",
    "methods": {},
    "version": 1
  }
}